{
  "contractName": "PixelCons",
  "abi": [
    {
      "constant": true,
      "inputs": [
        {
          "name": "_interfaceId",
          "type": "bytes4"
        }
      ],
      "name": "supportsInterface",
      "outputs": [
        {
          "name": "",
          "type": "bool"
        }
      ],
      "payable": false,
      "stateMutability": "view",
      "type": "function"
    },
    {
      "constant": true,
      "inputs": [],
      "name": "InterfaceId_ERC165",
      "outputs": [
        {
          "name": "",
          "type": "bytes4"
        }
      ],
      "payable": false,
      "stateMutability": "view",
      "type": "function"
    },
    {
      "constant": false,
      "inputs": [],
      "name": "close",
      "outputs": [],
      "payable": false,
      "stateMutability": "nonpayable",
      "type": "function"
    },
    {
      "constant": true,
      "inputs": [],
      "name": "owner",
      "outputs": [
        {
          "name": "",
          "type": "address"
        }
      ],
      "payable": false,
      "stateMutability": "view",
      "type": "function"
    },
    {
      "inputs": [],
      "payable": false,
      "stateMutability": "nonpayable",
      "type": "constructor"
    },
    {
      "anonymous": false,
      "inputs": [
        {
          "indexed": true,
          "name": "_tokenId",
          "type": "uint256"
        },
        {
          "indexed": true,
          "name": "_creator",
          "type": "address"
        },
        {
          "indexed": false,
          "name": "_tokenIndex",
          "type": "uint64"
        },
        {
          "indexed": false,
          "name": "_to",
          "type": "address"
        }
      ],
      "name": "Create",
      "type": "event"
    },
    {
      "anonymous": false,
      "inputs": [
        {
          "indexed": true,
          "name": "_tokenId",
          "type": "uint256"
        },
        {
          "indexed": false,
          "name": "_newName",
          "type": "bytes8"
        }
      ],
      "name": "Rename",
      "type": "event"
    },
    {
      "anonymous": false,
      "inputs": [
        {
          "indexed": true,
          "name": "_creator",
          "type": "address"
        },
        {
          "indexed": true,
          "name": "_collectionIndex",
          "type": "uint64"
        }
      ],
      "name": "CreateCollection",
      "type": "event"
    },
    {
      "anonymous": false,
      "inputs": [
        {
          "indexed": true,
          "name": "_collectionIndex",
          "type": "uint64"
        },
        {
          "indexed": false,
          "name": "_newName",
          "type": "bytes8"
        }
      ],
      "name": "RenameCollection",
      "type": "event"
    },
    {
      "anonymous": false,
      "inputs": [
        {
          "indexed": true,
          "name": "_collectionIndex",
          "type": "uint64"
        }
      ],
      "name": "ClearCollection",
      "type": "event"
    },
    {
      "anonymous": false,
      "inputs": [
        {
          "indexed": true,
          "name": "_from",
          "type": "address"
        },
        {
          "indexed": true,
          "name": "_to",
          "type": "address"
        },
        {
          "indexed": true,
          "name": "_tokenId",
          "type": "uint256"
        }
      ],
      "name": "Transfer",
      "type": "event"
    },
    {
      "anonymous": false,
      "inputs": [
        {
          "indexed": true,
          "name": "_owner",
          "type": "address"
        },
        {
          "indexed": true,
          "name": "_approved",
          "type": "address"
        },
        {
          "indexed": true,
          "name": "_tokenId",
          "type": "uint256"
        }
      ],
      "name": "Approval",
      "type": "event"
    },
    {
      "anonymous": false,
      "inputs": [
        {
          "indexed": true,
          "name": "_owner",
          "type": "address"
        },
        {
          "indexed": true,
          "name": "_operator",
          "type": "address"
        },
        {
          "indexed": false,
          "name": "_approved",
          "type": "bool"
        }
      ],
      "name": "ApprovalForAll",
      "type": "event"
    },
    {
      "constant": true,
      "inputs": [],
      "name": "getAdmin",
      "outputs": [
        {
          "name": "",
          "type": "address"
        }
      ],
      "payable": false,
      "stateMutability": "view",
      "type": "function"
    },
    {
      "constant": false,
      "inputs": [
        {
          "name": "_to",
          "type": "address"
        }
      ],
      "name": "adminWithdraw",
      "outputs": [],
      "payable": false,
      "stateMutability": "nonpayable",
      "type": "function"
    },
    {
      "constant": false,
      "inputs": [
        {
          "name": "_newAdmin",
          "type": "address"
        }
      ],
      "name": "adminChange",
      "outputs": [],
      "payable": false,
      "stateMutability": "nonpayable",
      "type": "function"
    },
    {
      "constant": false,
      "inputs": [
        {
          "name": "_newTokenURITemplate",
          "type": "string"
        }
      ],
      "name": "adminSetTokenURITemplate",
      "outputs": [],
      "payable": false,
      "stateMutability": "nonpayable",
      "type": "function"
    },
    {
      "constant": false,
      "inputs": [
        {
          "name": "_to",
          "type": "address"
        },
        {
          "name": "_tokenId",
          "type": "uint256"
        },
        {
          "name": "_name",
          "type": "bytes8"
        }
      ],
      "name": "create",
      "outputs": [
        {
          "name": "",
          "type": "uint64"
        }
      ],
      "payable": true,
      "stateMutability": "payable",
      "type": "function"
    },
    {
      "constant": false,
      "inputs": [
        {
          "name": "_tokenId",
          "type": "uint256"
        },
        {
          "name": "_name",
          "type": "bytes8"
        }
      ],
      "name": "rename",
      "outputs": [
        {
          "name": "",
          "type": "uint64"
        }
      ],
      "payable": false,
      "stateMutability": "nonpayable",
      "type": "function"
    },
    {
      "constant": true,
      "inputs": [
        {
          "name": "_tokenId",
          "type": "uint256"
        }
      ],
      "name": "exists",
      "outputs": [
        {
          "name": "",
          "type": "bool"
        }
      ],
      "payable": false,
      "stateMutability": "view",
      "type": "function"
    },
    {
      "constant": true,
      "inputs": [
        {
          "name": "_tokenId",
          "type": "uint256"
        }
      ],
      "name": "creatorOf",
      "outputs": [
        {
          "name": "",
          "type": "address"
        }
      ],
      "payable": false,
      "stateMutability": "view",
      "type": "function"
    },
    {
      "constant": true,
      "inputs": [
        {
          "name": "_creator",
          "type": "address"
        }
      ],
      "name": "creatorTotal",
      "outputs": [
        {
          "name": "",
          "type": "uint256"
        }
      ],
      "payable": false,
      "stateMutability": "view",
      "type": "function"
    },
    {
      "constant": true,
      "inputs": [
        {
          "name": "_creator",
          "type": "address"
        },
        {
          "name": "_index",
          "type": "uint256"
        }
      ],
      "name": "tokenOfCreatorByIndex",
      "outputs": [
        {
          "name": "",
          "type": "uint256"
        }
      ],
      "payable": false,
      "stateMutability": "view",
      "type": "function"
    },
    {
      "constant": true,
      "inputs": [
        {
          "name": "_tokenId",
          "type": "uint256"
        }
      ],
      "name": "getTokenData",
      "outputs": [
        {
          "name": "_tknId",
          "type": "uint256"
        },
        {
          "name": "_tknIdx",
          "type": "uint64"
        },
        {
          "name": "_collectionIdx",
          "type": "uint64"
        },
        {
          "name": "_owner",
          "type": "address"
        },
        {
          "name": "_creator",
          "type": "address"
        },
        {
          "name": "_name",
          "type": "bytes8"
        },
        {
          "name": "_dateCreated",
          "type": "uint32"
        }
      ],
      "payable": false,
      "stateMutability": "view",
      "type": "function"
    },
    {
      "constant": true,
      "inputs": [
        {
          "name": "_tokenIndex",
          "type": "uint64"
        }
      ],
      "name": "getTokenDataByIndex",
      "outputs": [
        {
          "name": "_tknId",
          "type": "uint256"
        },
        {
          "name": "_tknIdx",
          "type": "uint64"
        },
        {
          "name": "_collectionIdx",
          "type": "uint64"
        },
        {
          "name": "_owner",
          "type": "address"
        },
        {
          "name": "_creator",
          "type": "address"
        },
        {
          "name": "_name",
          "type": "bytes8"
        },
        {
          "name": "_dateCreated",
          "type": "uint32"
        }
      ],
      "payable": false,
      "stateMutability": "view",
      "type": "function"
    },
    {
      "constant": true,
      "inputs": [
        {
          "name": "_tokenId",
          "type": "uint256"
        }
      ],
      "name": "getTokenIndex",
      "outputs": [
        {
          "name": "",
          "type": "uint64"
        }
      ],
      "payable": false,
      "stateMutability": "view",
      "type": "function"
    },
    {
      "constant": false,
      "inputs": [
        {
          "name": "_tokenIndexes",
          "type": "uint64[]"
        },
        {
          "name": "_name",
          "type": "bytes8"
        }
      ],
      "name": "createCollection",
      "outputs": [
        {
          "name": "",
          "type": "uint64"
        }
      ],
      "payable": false,
      "stateMutability": "nonpayable",
      "type": "function"
    },
    {
      "constant": false,
      "inputs": [
        {
          "name": "_collectionIndex",
          "type": "uint64"
        },
        {
          "name": "_name",
          "type": "bytes8"
        }
      ],
      "name": "renameCollection",
      "outputs": [
        {
          "name": "",
          "type": "uint64"
        }
      ],
      "payable": false,
      "stateMutability": "nonpayable",
      "type": "function"
    },
    {
      "constant": false,
      "inputs": [
        {
          "name": "_collectionIndex",
          "type": "uint64"
        }
      ],
      "name": "clearCollection",
      "outputs": [
        {
          "name": "",
          "type": "uint64"
        }
      ],
      "payable": false,
      "stateMutability": "nonpayable",
      "type": "function"
    },
    {
      "constant": true,
      "inputs": [
        {
          "name": "_collectionIndex",
          "type": "uint64"
        }
      ],
      "name": "collectionExists",
      "outputs": [
        {
          "name": "",
          "type": "bool"
        }
      ],
      "payable": false,
      "stateMutability": "view",
      "type": "function"
    },
    {
      "constant": true,
      "inputs": [
        {
          "name": "_collectionIndex",
          "type": "uint64"
        }
      ],
      "name": "collectionCleared",
      "outputs": [
        {
          "name": "",
          "type": "bool"
        }
      ],
      "payable": false,
      "stateMutability": "view",
      "type": "function"
    },
    {
      "constant": true,
      "inputs": [],
      "name": "totalCollections",
      "outputs": [
        {
          "name": "",
          "type": "uint256"
        }
      ],
      "payable": false,
      "stateMutability": "view",
      "type": "function"
    },
    {
      "constant": true,
      "inputs": [
        {
          "name": "_tokenId",
          "type": "uint256"
        }
      ],
      "name": "collectionOf",
      "outputs": [
        {
          "name": "",
          "type": "uint256"
        }
      ],
      "payable": false,
      "stateMutability": "view",
      "type": "function"
    },
    {
      "constant": true,
      "inputs": [
        {
          "name": "_collectionIndex",
          "type": "uint64"
        }
      ],
      "name": "collectionTotal",
      "outputs": [
        {
          "name": "",
          "type": "uint256"
        }
      ],
      "payable": false,
      "stateMutability": "view",
      "type": "function"
    },
    {
      "constant": true,
      "inputs": [
        {
          "name": "_collectionIndex",
          "type": "uint64"
        }
      ],
      "name": "getCollectionName",
      "outputs": [
        {
          "name": "",
          "type": "bytes8"
        }
      ],
      "payable": false,
      "stateMutability": "view",
      "type": "function"
    },
    {
      "constant": true,
      "inputs": [
        {
          "name": "_collectionIndex",
          "type": "uint64"
        },
        {
          "name": "_index",
          "type": "uint256"
        }
      ],
      "name": "tokenOfCollectionByIndex",
      "outputs": [
        {
          "name": "",
          "type": "uint256"
        }
      ],
      "payable": false,
      "stateMutability": "view",
      "type": "function"
    },
    {
      "constant": true,
      "inputs": [
        {
          "name": "_owner",
          "type": "address"
        }
      ],
      "name": "getForOwner",
      "outputs": [
        {
          "name": "",
          "type": "uint64[]"
        }
      ],
      "payable": false,
      "stateMutability": "view",
      "type": "function"
    },
    {
      "constant": true,
      "inputs": [
        {
          "name": "_creator",
          "type": "address"
        }
      ],
      "name": "getForCreator",
      "outputs": [
        {
          "name": "",
          "type": "uint64[]"
        }
      ],
      "payable": false,
      "stateMutability": "view",
      "type": "function"
    },
    {
      "constant": true,
      "inputs": [
        {
          "name": "_collectionIndex",
          "type": "uint64"
        }
      ],
      "name": "getForCollection",
      "outputs": [
        {
          "name": "",
          "type": "uint64[]"
        }
      ],
      "payable": false,
      "stateMutability": "view",
      "type": "function"
    },
    {
      "constant": true,
      "inputs": [
        {
          "name": "_tokenIndexes",
          "type": "uint64[]"
        }
      ],
      "name": "getBasicData",
      "outputs": [
        {
          "name": "",
          "type": "uint256[]"
        },
        {
          "name": "",
          "type": "bytes8[]"
        },
        {
          "name": "",
          "type": "address[]"
        },
        {
          "name": "",
          "type": "uint64[]"
        }
      ],
      "payable": false,
      "stateMutability": "view",
      "type": "function"
    },
    {
      "constant": true,
      "inputs": [],
      "name": "getAllNames",
      "outputs": [
        {
          "name": "",
          "type": "bytes8[]"
        }
      ],
      "payable": false,
      "stateMutability": "view",
      "type": "function"
    },
    {
      "constant": true,
      "inputs": [
        {
          "name": "_startIndex",
          "type": "uint64"
        },
        {
          "name": "_endIndex",
          "type": "uint64"
        }
      ],
      "name": "getNamesInRange",
      "outputs": [
        {
          "name": "",
          "type": "bytes8[]"
        }
      ],
      "payable": false,
      "stateMutability": "view",
      "type": "function"
    },
    {
      "constant": true,
      "inputs": [
        {
          "name": "_collectionIndex",
          "type": "uint64"
        }
      ],
      "name": "getCollectionData",
      "outputs": [
        {
          "name": "",
          "type": "bytes8"
        },
        {
          "name": "",
          "type": "uint64[]"
        }
      ],
      "payable": false,
      "stateMutability": "view",
      "type": "function"
    },
    {
      "constant": true,
      "inputs": [],
      "name": "getAllCollectionNames",
      "outputs": [
        {
          "name": "",
          "type": "bytes8[]"
        }
      ],
      "payable": false,
      "stateMutability": "view",
      "type": "function"
    },
    {
      "constant": true,
      "inputs": [
        {
          "name": "_startIndex",
          "type": "uint64"
        },
        {
          "name": "_endIndex",
          "type": "uint64"
        }
      ],
      "name": "getCollectionNamesInRange",
      "outputs": [
        {
          "name": "",
          "type": "bytes8[]"
        }
      ],
      "payable": false,
      "stateMutability": "view",
      "type": "function"
    },
    {
      "constant": true,
      "inputs": [
        {
          "name": "_owner",
          "type": "address"
        }
      ],
      "name": "balanceOf",
      "outputs": [
        {
          "name": "",
          "type": "uint256"
        }
      ],
      "payable": false,
      "stateMutability": "view",
      "type": "function"
    },
    {
      "constant": true,
      "inputs": [
        {
          "name": "_tokenId",
          "type": "uint256"
        }
      ],
      "name": "ownerOf",
      "outputs": [
        {
          "name": "",
          "type": "address"
        }
      ],
      "payable": false,
      "stateMutability": "view",
      "type": "function"
    },
    {
      "constant": false,
      "inputs": [
        {
          "name": "_to",
          "type": "address"
        },
        {
          "name": "_tokenId",
          "type": "uint256"
        }
      ],
      "name": "approve",
      "outputs": [],
      "payable": false,
      "stateMutability": "nonpayable",
      "type": "function"
    },
    {
      "constant": true,
      "inputs": [
        {
          "name": "_tokenId",
          "type": "uint256"
        }
      ],
      "name": "getApproved",
      "outputs": [
        {
          "name": "",
          "type": "address"
        }
      ],
      "payable": false,
      "stateMutability": "view",
      "type": "function"
    },
    {
      "constant": false,
      "inputs": [
        {
          "name": "_to",
          "type": "address"
        },
        {
          "name": "_approved",
          "type": "bool"
        }
      ],
      "name": "setApprovalForAll",
      "outputs": [],
      "payable": false,
      "stateMutability": "nonpayable",
      "type": "function"
    },
    {
      "constant": true,
      "inputs": [
        {
          "name": "_owner",
          "type": "address"
        },
        {
          "name": "_operator",
          "type": "address"
        }
      ],
      "name": "isApprovedForAll",
      "outputs": [
        {
          "name": "",
          "type": "bool"
        }
      ],
      "payable": false,
      "stateMutability": "view",
      "type": "function"
    },
    {
      "constant": false,
      "inputs": [
        {
          "name": "_from",
          "type": "address"
        },
        {
          "name": "_to",
          "type": "address"
        },
        {
          "name": "_tokenId",
          "type": "uint256"
        }
      ],
      "name": "transferFrom",
      "outputs": [],
      "payable": false,
      "stateMutability": "nonpayable",
      "type": "function"
    },
    {
      "constant": false,
      "inputs": [
        {
          "name": "_from",
          "type": "address"
        },
        {
          "name": "_to",
          "type": "address"
        },
        {
          "name": "_tokenId",
          "type": "uint256"
        },
        {
          "name": "_data",
          "type": "bytes"
        }
      ],
      "name": "safeTransferFrom",
      "outputs": [],
      "payable": false,
      "stateMutability": "nonpayable",
      "type": "function"
    },
    {
      "constant": false,
      "inputs": [
        {
          "name": "_from",
          "type": "address"
        },
        {
          "name": "_to",
          "type": "address"
        },
        {
          "name": "_tokenId",
          "type": "uint256"
        }
      ],
      "name": "safeTransferFrom",
      "outputs": [],
      "payable": false,
      "stateMutability": "nonpayable",
      "type": "function"
    },
    {
      "constant": true,
      "inputs": [],
      "name": "totalSupply",
      "outputs": [
        {
          "name": "",
          "type": "uint256"
        }
      ],
      "payable": false,
      "stateMutability": "view",
      "type": "function"
    },
    {
      "constant": true,
      "inputs": [
        {
          "name": "_tokenIndex",
          "type": "uint256"
        }
      ],
      "name": "tokenByIndex",
      "outputs": [
        {
          "name": "",
          "type": "uint256"
        }
      ],
      "payable": false,
      "stateMutability": "view",
      "type": "function"
    },
    {
      "constant": true,
      "inputs": [
        {
          "name": "_owner",
          "type": "address"
        },
        {
          "name": "_index",
          "type": "uint256"
        }
      ],
      "name": "tokenOfOwnerByIndex",
      "outputs": [
        {
          "name": "",
          "type": "uint256"
        }
      ],
      "payable": false,
      "stateMutability": "view",
      "type": "function"
    },
    {
      "constant": true,
      "inputs": [],
      "name": "name",
      "outputs": [
        {
          "name": "",
          "type": "string"
        }
      ],
      "payable": false,
      "stateMutability": "view",
      "type": "function"
    },
    {
      "constant": true,
      "inputs": [],
      "name": "symbol",
      "outputs": [
        {
          "name": "",
          "type": "string"
        }
      ],
      "payable": false,
      "stateMutability": "view",
      "type": "function"
    },
    {
      "constant": true,
      "inputs": [
        {
          "name": "_tokenId",
          "type": "uint256"
        }
      ],
      "name": "tokenURI",
      "outputs": [
        {
          "name": "",
          "type": "string"
        }
      ],
      "payable": false,
      "stateMutability": "view",
      "type": "function"
    }
  ],
  "bytecode": "0x60806040523480156200001157600080fd5b50620000467f01ffc9a7000000000000000000000000000000000000000000000000000000006401000000006200011b810204565b6200007a7f80ac58cd000000000000000000000000000000000000000000000000000000006401000000006200011b810204565b620000ae7f780e9d63000000000000000000000000000000000000000000000000000000006401000000006200011b810204565b620000e27f5b5e139f000000000000000000000000000000000000000000000000000000006401000000006200011b810204565b6001805433600160a060020a03199182168117835560028054909216179055600c805491620001149190830162000188565b50620001e8565b7fffffffff0000000000000000000000000000000000000000000000000000000080821614156200014b57600080fd5b7fffffffff00000000000000000000000000000000000000000000000000000000166000908152602081905260409020805460ff19166001179055565b815481835581811115620001bf576003016004900481600301600490048360005260206000209182019101620001bf9190620001c4565b505050565b620001e591905b80821115620001e15760008155600101620001cb565b5090565b90565b61529980620001f86000396000f30060806040526004361061024d5763ffffffff60e060020a60003504166301ffc9a78114610252578063062401c21461028857806306fdde0314610306578063081812fc1461039057806308702682146103c4578063095ea7b3146103f757806318160ddd1461041d57806319fa8f501461043257806323b872dd1461046457806326a508621461048e5780632f745c59146104af5780633a663c80146104d357806342842e0e1461050757806343d726d6146105315780634aeabcb6146105465780634f558e791461056a5780634f6ccce7146105825780634fc092751461059a57806350ff9a5b146105be57806357643118146105ec578063583506811461065d578063589a174314610684578063602c4f051461069c57806361d9db2d146106c35780636352211e146106d85780636bb2a9a8146106f05780636e9960c31461077557806370a082311461078a57806375d28011146107ab5780638a153c28146107d05780638da5cb5b146107f157806395d89b41146108065780639e5f4dbd1461081b5780639fee49ba1461083c578063a05d821b14610860578063a22cb46514610881578063a28835b6146108a7578063ace8116d146108c8578063ad732154146108dd578063b09afec1146108fe578063b2f4221014610916578063b88d4fde1461096f578063c7778baa146109de578063c82a94a1146109f6578063c87b56dd14610a57578063d4aa25cc14610a6f578063d694f10914610a90578063e2b3190314610ab1578063e8545f1b14610c29578063e985e9c514610c67578063fb825e5f14610c8e575b600080fd5b34801561025e57600080fd5b50610274600160e060020a031960043516610ca3565b604080519115158252519081900360200190f35b34801561029457600080fd5b506102a96001604060020a0360043516610cc6565b604080519788526001604060020a0396871660208901529490951686850152600160a060020a03928316606087015291166080850152600160c060020a03191660a084015263ffffffff90911660c0830152519081900360e00190f35b34801561031257600080fd5b5061031b610dfe565b6040805160208082528351818301528351919283929083019185019080838360005b8381101561035557818101518382015260200161033d565b50505050905090810190601f1680156103825780820380516001836020036101000a031916815260200191505b509250505060405180910390f35b34801561039c57600080fd5b506103a8600435610e36565b60408051600160a060020a039092168252519081900360200190f35b3480156103d057600080fd5b506103e5600160a060020a0360043516610efc565b60408051918252519081900360200190f35b34801561040357600080fd5b5061041b600160a060020a0360043516602435610f6a565b005b34801561042957600080fd5b506103e5611147565b34801561043e57600080fd5b5061044761114d565b60408051600160e060020a03199092168252519081900360200190f35b34801561047057600080fd5b5061041b600160a060020a0360043581169060243516604435611171565b34801561049a57600080fd5b506103e56001604060020a0360043516611342565b3480156104bb57600080fd5b506103e5600160a060020a0360043516602435611405565b3480156104df57600080fd5b506104eb600435611546565b604080516001604060020a039092168252519081900360200190f35b34801561051357600080fd5b5061041b600160a060020a0360043581169060243516604435611607565b34801561053d57600080fd5b5061041b611628565b34801561055257600080fd5b506103e56001604060020a03600435166024356116be565b34801561057657600080fd5b506102746004356117fc565b34801561058e57600080fd5b506103e5600435611865565b3480156105a657600080fd5b506103e5600160a060020a03600435166024356118da565b3480156105ca57600080fd5b506104eb6001604060020a0360043516600160c060020a0319602435166119c3565b3480156105f857600080fd5b5061060d600160a060020a0360043516611c7d565b60408051602080825283518183015283519192839290830191858101910280838360005b83811015610649578181015183820152602001610631565b505050509050019250505060405180910390f35b34801561066957600080fd5b5061060d6001604060020a0360043581169060243516611d6b565b34801561069057600080fd5b506103a8600435611f98565b3480156106a857600080fd5b5061060d6001604060020a0360043581169060243516612087565b3480156106cf57600080fd5b506103e56122a7565b3480156106e457600080fd5b506103a86004356122ad565b3480156106fc57600080fd5b506107116001604060020a036004351661235c565b60408051600160c060020a031984168152602080820183815284519383019390935283519192916060840191858101910280838360005b83811015610760578181015183820152602001610748565b50505050905001935050505060405180910390f35b34801561078157600080fd5b506103a86124e1565b34801561079657600080fd5b506103e5600160a060020a03600435166124f0565b3480156107b757600080fd5b506104eb600435600160c060020a03196024351661255e565b3480156107dc57600080fd5b506102746001604060020a03600435166126eb565b3480156107fd57600080fd5b506103a86127af565b34801561081257600080fd5b5061031b6127be565b34801561082757600080fd5b5061041b600160a060020a03600435166127f5565b6104eb600160a060020a0360043516602435600160c060020a0319604435166128ac565b34801561086c57600080fd5b506104eb6001604060020a0360043516612c91565b34801561088d57600080fd5b5061041b600160a060020a03600435166024351515612f5b565b3480156108b357600080fd5b5061041b600160a060020a036004351661307a565b3480156108d457600080fd5b5061060d61313c565b3480156108e957600080fd5b5061060d6001604060020a03600435166131c4565b34801561090a57600080fd5b506102a9600435613287565b34801561092257600080fd5b506040805160206004803580820135601f810184900484028501840190955284845261041b9436949293602493928401919081908401838280828437509497506134029650505050505050565b34801561097b57600080fd5b50604080516020601f60643560048181013592830184900484028501840190955281845261041b94600160a060020a03813581169560248035909216956044359536956084940191819084018382808284375094975061349d9650505050505050565b3480156109ea57600080fd5b506103e5600435613510565b348015610a0257600080fd5b50604080516020600480358082013583810280860185019096528085526104eb9536959394602494938501929182918501908490808284375094975050509235600160c060020a031916935061361392505050565b348015610a6357600080fd5b5061031b600435613a41565b348015610a7b57600080fd5b5061060d600160a060020a0360043516613e15565b348015610a9c57600080fd5b506102746001604060020a0360043516613ed8565b348015610abd57600080fd5b5060408051602060048035808201358381028086018501909652808552610b0695369593946024949385019291829185019084908082843750949750613f449650505050505050565b6040518080602001806020018060200180602001858103855289818151815260200191508051906020019060200280838360005b83811015610b52578181015183820152602001610b3a565b50505050905001858103845288818151815260200191508051906020019060200280838360005b83811015610b91578181015183820152602001610b79565b50505050905001858103835287818151815260200191508051906020019060200280838360005b83811015610bd0578181015183820152602001610bb8565b50505050905001858103825286818151815260200191508051906020019060200280838360005b83811015610c0f578181015183820152602001610bf7565b505050509050019850505050505050505060405180910390f35b348015610c3557600080fd5b50610c4a6001604060020a0360043516614218565b60408051600160c060020a03199092168252519081900360200190f35b348015610c7357600080fd5b50610274600160a060020a0360043581169060243516614303565b348015610c9a57600080fd5b5061060d6143d4565b600160e060020a0319811660009081526020819052604090205460ff165b919050565b6000806000806000806000806000610cdc611147565b6001604060020a038b1610610d29576040805160e560020a62461bcd02815260206004820152601f602482015260008051602061518e833981519152604482015290519081900360640190fd5b600980546001604060020a038c16908110610d4057fe5b60009182526020808320600290920290910180548084526004909252604090922080546001840154600a805495975092955092936001604060020a0360a060020a80840482169590810490911693600160a060020a03938416939091169185908110610da857fe5b90600052602060002090600491828204019190066008029054906101000a900460c060020a0287600101601c9054906101000a900463ffffffff1698509850985098509850985098505050919395979092949650565b60408051808201909152600981527f506978656c436f6e73000000000000000000000000000000000000000000000060208201525b90565b60008082801515610e7f576040805160e560020a62461bcd02815260206004820152600a60248201526000805160206151ee833981519152604482015290519081900360640190fd5b600084815260046020526040902054600160a060020a03169150811515610ede576040805160e560020a62461bcd028152602060048201526017602482015260008051602061524e833981519152604482015290519081900360640190fd5b505050600090815260076020526040902054600160a060020a031690565b600081600160a060020a0381161515610f4d576040805160e560020a62461bcd02815260206004820152600f60248201526000805160206151ae833981519152604482015290519081900360640190fd5b5050600160a060020a031660009081526006602052604090205490565b600081801515610fb2576040805160e560020a62461bcd02815260206004820152600a60248201526000805160206151ee833981519152604482015290519081900360640190fd5b600083815260046020526040902054600160a060020a0390811692508416821415611027576040805160e560020a62461bcd02815260206004820152601d60248201527f43616e6e6f7420617070726f766520506978656c436f6e206f776e6572000000604482015290519081900360640190fd5b33600160a060020a03831614806110615750600160a060020a038216600090815260086020908152604080832033845290915290205460ff165b15156110dd576040805160e560020a62461bcd02815260206004820152603260248201527f53656e64657220646f6573206e6f742068617665207065726d697373696f6e2060448201527f746f20617070726f766520616464726573730000000000000000000000000000606482015290519081900360840190fd5b600083815260076020526040808220805473ffffffffffffffffffffffffffffffffffffffff1916600160a060020a0388811691821790925591518693918616917f8c5be1e5ebec7d5bd14f71427d1e84f3dd0314c0f7b2291e5b200ac8c7c3b92591a450505050565b60095490565b7f01ffc9a70000000000000000000000000000000000000000000000000000000081565b82600160a060020a03811615156111c0576040805160e560020a62461bcd02815260206004820152600f60248201526000805160206151ae833981519152604482015290519081900360640190fd5b82600160a060020a038116151561120f576040805160e560020a62461bcd02815260206004820152600f60248201526000805160206151ae833981519152604482015290519081900360640190fd5b82801515611255576040805160e560020a62461bcd02815260206004820152600a60248201526000805160206151ee833981519152604482015290519081900360640190fd5b61125f338561443b565b15156112db576040805160e560020a62461bcd02815260206004820152603460248201527f53656e64657220646f6573206e6f742068617665207065726d697373696f6e2060448201527f746f207472616e7366657220506978656c436f6e000000000000000000000000606482015290519081900360840190fd5b6112e58685614509565b6112ef86856145c3565b6112f985856147fd565b8385600160a060020a031687600160a060020a03167fddf252ad1be2c89b69c2b068fc378daa952ba7f163c4a11628f55a4df523b3ef60405160405180910390a4505050505050565b6000816001604060020a0381161515611393576040805160e560020a62461bcd02815260206004820152600d602482015260008051602061522e833981519152604482015290519081900360640190fd5b61139b6122a7565b6001604060020a038416106113e8576040805160e560020a62461bcd028152602060048201526019602482015260008051602061520e833981519152604482015290519081900360640190fd5b50506001604060020a03166000908152600b602052604090205490565b60008083600160a060020a0381161515611457576040805160e560020a62461bcd02815260206004820152600f60248201526000805160206151ae833981519152604482015290519081900360640190fd5b600160a060020a03851660009081526005602052604090205484106114c6576040805160e560020a62461bcd02815260206004820152601660248201527f496e646578206973206f7574206f6620626f756e647300000000000000000000604482015290519081900360640190fd5b600160a060020a0385166000908152600560205260409020805460099190869081106114ee57fe5b90600052602060002090600491828204019190066008029054906101000a90046001604060020a03166001604060020a031681548110151561152c57fe5b600091825260209091206002909102015495945050505050565b6000808280151561158f576040805160e560020a62461bcd02815260206004820152600a60248201526000805160206151ee833981519152604482015290519081900360640190fd5b60008481526004602052604090208054909250600160a060020a031615156115ef576040805160e560020a62461bcd028152602060048201526017602482015260008051602061524e833981519152604482015290519081900360640190fd5b505460a060020a90046001604060020a031692915050565b611623838383602060405190810160405280600081525061349d565b505050565b600154600160a060020a031633146116b0576040805160e560020a62461bcd02815260206004820152602260248201527f4f6e6c79206f776e65722063616e2063616c6c20746869732066756e6374696f60448201527f6e2e000000000000000000000000000000000000000000000000000000000000606482015290519081900360840190fd5b600154600160a060020a0316ff5b600080836001604060020a0381161515611710576040805160e560020a62461bcd02815260206004820152600d602482015260008051602061522e833981519152604482015290519081900360640190fd5b6117186122a7565b6001604060020a03861610611765576040805160e560020a62461bcd028152602060048201526019602482015260008051602061520e833981519152604482015290519081900360640190fd5b6001604060020a0385166000908152600b602052604090205484106117d4576040805160e560020a62461bcd02815260206004820152601660248201527f496e646578206973206f7574206f6620626f756e647300000000000000000000604482015290519081900360640190fd5b6001604060020a0385166000908152600b60205260409020805460099190869081106114ee57fe5b60008082801515611845576040805160e560020a62461bcd02815260206004820152600a60248201526000805160206151ee833981519152604482015290519081900360640190fd5b505050600090815260046020526040902054600160a060020a0316151590565b600061186f611147565b82106118b3576040805160e560020a62461bcd02815260206004820152601f602482015260008051602061518e833981519152604482015290519081900360640190fd5b60098054839081106118c157fe5b9060005260206000209060020201600001549050919050565b60008083600160a060020a038116151561192c576040805160e560020a62461bcd02815260206004820152600f60248201526000805160206151ae833981519152604482015290519081900360640190fd5b600160a060020a038516600090815260066020526040902054841061199b576040805160e560020a62461bcd02815260206004820152601660248201527f496e646578206973206f7574206f6620626f756e647300000000000000000000604482015290519081900360640190fd5b600160a060020a0385166000908152600660205260409020805460099190869081106114ee57fe5b6000808080856001604060020a0381161515611a17576040805160e560020a62461bcd02815260206004820152600d602482015260008051602061522e833981519152604482015290519081900360640190fd5b611a1f6122a7565b6001604060020a03881610611a6c576040805160e560020a62461bcd028152602060048201526019602482015260008051602061520e833981519152604482015290519081900360640190fd5b6001604060020a0387166000908152600b60205260408120805490955011611ade576040805160e560020a62461bcd02815260206004820152601b60248201527f436f6c6c656374696f6e20686173206265656e20636c65617265640000000000604482015290519081900360640190fd5b600092505b8354831015611bcd5760098484815481101515611afc57fe5b90600052602060002090600491828204019190066008029054906101000a90046001604060020a03166001604060020a0316815481101515611b3a57fe5b90600052602060002090600202019150611b583383600001546149d1565b1515611bc2576040805160e560020a62461bcd02815260206004820152603460248201526000805160206151ce83398151915260448201527f6e6572206f662074686520506978656c436f6e73000000000000000000000000606482015290519081900360840190fd5b600190920191611ae3565b85600c886001604060020a0316815481101515611be657fe5b90600052602060002090600491828204019190066008026101000a8154816001604060020a03021916908360c060020a90040217905550866001604060020a03167f7a2598b6ea001b660b6a3a5220b528a1837bdfe8e7937b151843c9814e7a25f6876040518082600160c060020a031916600160c060020a031916815260200191505060405180910390a2509495945050505050565b606081600160a060020a0381161515611cce576040805160e560020a62461bcd02815260206004820152600f60248201526000805160206151ae833981519152604482015290519081900360640190fd5b600160a060020a03831660009081526005602090815260409182902080548351818402810184019094528084529091830182828015611d5e57602002820191906000526020600020906000905b82829054906101000a90046001604060020a03166001604060020a031681526020019060080190602082600701049283019260010382029150808411611d1b5790505b5050505050915050919050565b6060600060606000611d7b611147565b6001604060020a0387161115611ddb576040805160e560020a62461bcd02815260206004820152601c60248201527f537461727420696e646578206973206f7574206f6620626f756e647300000000604482015290519081900360640190fd5b611de3611147565b6001604060020a0386161115611e43576040805160e560020a62461bcd02815260206004820152601a60248201527f456e6420696e646578206973206f7574206f6620626f756e6473000000000000604482015290519081900360640190fd5b6001604060020a038086169087161115611ecd576040805160e560020a62461bcd02815260206004820152602660248201527f456e6420696e646578206973206c657373207468616e2074686520737461727460448201527f20696e6465780000000000000000000000000000000000000000000000000000606482015290519081900360840190fd5b8585039250826001604060020a0316604051908082528060200260200182016040528015611f05578160200160208202803883390190505b509150600090505b826001604060020a0316811015611f8b57600a80546001604060020a0388168301908110611f3757fe5b90600052602060002090600491828204019190066008029054906101000a900460c060020a028282815181101515611f6b57fe5b600160c060020a0319909216602092830290910190910152600101611f0d565b8193505b50505092915050565b60008082801515611fe1576040805160e560020a62461bcd02815260206004820152600a60248201526000805160206151ee833981519152604482015290519081900360640190fd5b60008481526004602052604090208054909250600160a060020a03161515612041576040805160e560020a62461bcd028152602060048201526017602482015260008051602061524e833981519152604482015290519081900360640190fd5b815460098054909160a060020a90046001604060020a031690811061206257fe5b6000918252602090912060029091020160010154600160a060020a0316949350505050565b60606000606060006120976122a7565b6001604060020a03871611156120f7576040805160e560020a62461bcd02815260206004820152601c60248201527f537461727420696e646578206973206f7574206f6620626f756e647300000000604482015290519081900360640190fd5b6120ff6122a7565b6001604060020a038616111561215f576040805160e560020a62461bcd02815260206004820152601a60248201527f456e6420696e646578206973206f7574206f6620626f756e6473000000000000604482015290519081900360640190fd5b6001604060020a0380861690871611156121e9576040805160e560020a62461bcd02815260206004820152602660248201527f456e6420696e646578206973206c657373207468616e2074686520737461727460448201527f20696e6465780000000000000000000000000000000000000000000000000000606482015290519081900360840190fd5b8585039250826001604060020a0316604051908082528060200260200182016040528015612221578160200160208202803883390190505b509150600090505b826001604060020a0316811015611f8b57600c80546001604060020a038816830190811061225357fe5b90600052602060002090600491828204019190066008029054906101000a900460c060020a02828281518110151561228757fe5b600160c060020a0319909216602092830290910190910152600101612229565b600c5490565b600080828015156122f6576040805160e560020a62461bcd02815260206004820152600a60248201526000805160206151ee833981519152604482015290519081900360640190fd5b600084815260046020526040902054600160a060020a03169150811515612355576040805160e560020a62461bcd028152602060048201526017602482015260008051602061524e833981519152604482015290519081900360640190fd5b5092915050565b60006060826001604060020a03811615156123af576040805160e560020a62461bcd02815260206004820152600d602482015260008051602061522e833981519152604482015290519081900360640190fd5b6123b76122a7565b6001604060020a03851610612404576040805160e560020a62461bcd028152602060048201526019602482015260008051602061520e833981519152604482015290519081900360640190fd5b600c80546001604060020a03861690811061241b57fe5b600091825260208083206004830401546001604060020a0388168452600b8252604093849020805485518185028101850190965280865260039094166008026101000a90910460c060020a0293909290918391908301828280156124d057602002820191906000526020600020906000905b82829054906101000a90046001604060020a03166001604060020a03168152602001906008019060208260070104928301926001038202915080841161248d5790505b505050505090509250925050915091565b600254600160a060020a031690565b600081600160a060020a0381161515612541576040805160e560020a62461bcd02815260206004820152600f60248201526000805160206151ae833981519152604482015290519081900360640190fd5b5050600160a060020a031660009081526005602052604090205490565b600080838015156125a7576040805160e560020a62461bcd02815260206004820152600a60248201526000805160206151ee833981519152604482015290519081900360640190fd5b6125b133866149d1565b151561261b576040805160e560020a62461bcd02815260206004820152602360248201526000805160206151ce83398151915260448201527f6e65720000000000000000000000000000000000000000000000000000000000606482015290519081900360840190fd5b60008581526004602052604090208054600a80549294508692909160a060020a90046001604060020a031690811061264f57fe5b90600052602060002090600491828204019190066008026101000a8154816001604060020a03021916908360c060020a90040217905550847fd3d90f94542b3ca93f1a474e55393834e376ebbac7df618dcf7f9327c57d6c5e856040518082600160c060020a031916600160c060020a031916815260200191505060405180910390a2505460a060020a90046001604060020a03169392505050565b6000816001604060020a038116151561273c576040805160e560020a62461bcd02815260206004820152600d602482015260008051602061522e833981519152604482015290519081900360640190fd5b6127446122a7565b6001604060020a03841610612791576040805160e560020a62461bcd028152602060048201526019602482015260008051602061520e833981519152604482015290519081900360640190fd5b50506001604060020a03166000908152600b60205260409020541590565b600154600160a060020a031681565b60408051808201909152600481527f5058434e00000000000000000000000000000000000000000000000000000000602082015290565b600254600160a060020a0316331461287d576040805160e560020a62461bcd02815260206004820152602560248201527f4f6e6c79207468652061646d696e2063616e2063616c6c20746869732066756e60448201527f6374696f6e000000000000000000000000000000000000000000000000000000606482015290519081900360840190fd5b6002805473ffffffffffffffffffffffffffffffffffffffff1916600160a060020a0392909216919091179055565b600080808080808089600160a060020a0381161515612903576040805160e560020a62461bcd02815260206004820152600f60248201526000805160206151ae833981519152604482015290519081900360640190fd5b89801515612949576040805160e560020a62461bcd02815260206004820152600a60248201526000805160206151ee833981519152604482015290519081900360640190fd5b60008b81526004602052604090206009549098506001604060020a03116129e0576040805160e560020a62461bcd02815260206004820152602860248201527f4d6178206e756d626572206f6620506978656c436f6e7320686173206265656e60448201527f2072656163686564000000000000000000000000000000000000000000000000606482015290519081900360840190fd5b8754600160a060020a031615612a40576040805160e560020a62461bcd02815260206004820152601760248201527f506978656c436f6e20616c726561647920657869737473000000000000000000604482015290519081900360640190fd5b60009650640100000000421015612a55574296505b6009805489547bffffffffffffffff0000000000000000000000000000000000000000191660a060020a6001604060020a03831602178a55815490975090612aa0906001830161504d565b50600a805490612ab39060018301615079565b50600980546001604060020a038816908110612acb57fe5b600091825260209091206002909102018b81556001810180543373ffffffffffffffffffffffffffffffffffffffff19909116177bffffffffffffffffffffffffffffffffffffffffffffffffffffffff1660e060020a63ffffffff8b1602179055600a80549196508b916001604060020a038916908110612b4957fe5b60009182526020808320600483040180546001604060020a0360039094166008026101000a938402191660c060020a909504929092029390931790553381526006909152604090208054909450925082612ba68560018301615079565b50858484815481101515612bb657fe5b90600052602060002090600491828204019190066008026101000a8154816001604060020a0302191690836001604060020a03160217905550612bf98c8c6147fd565b604080516001604060020a0388168152600160a060020a038e166020820152815133928e927f5ada7cc76c691909522f79b403dee86482e43a5064fb2d5849c685ab7d40be20929081900390910190a36040518b90600160a060020a038e16906000907fddf252ad1be2c89b69c2b068fc378daa952ba7f163c4a11628f55a4df523b3ef908290a450939a9950505050505050505050565b6000808080846001604060020a0381161515612ce5576040805160e560020a62461bcd02815260206004820152600d602482015260008051602061522e833981519152604482015290519081900360640190fd5b612ced6122a7565b6001604060020a03871610612d3a576040805160e560020a62461bcd028152602060048201526019602482015260008051602061520e833981519152604482015290519081900360640190fd5b6001604060020a0386166000908152600b60205260408120805490955011612dac576040805160e560020a62461bcd02815260206004820152601d60248201527f436f6c6c656374696f6e20697320616c726561647920636c6561726564000000604482015290519081900360640190fd5b600092505b8354831015612ec25760098484815481101515612dca57fe5b90600052602060002090600491828204019190066008029054906101000a90046001604060020a03166001604060020a0316815481101515612e0857fe5b90600052602060002090600202019150612e263383600001546149d1565b1515612e90576040805160e560020a62461bcd02815260206004820152603460248201526000805160206151ce83398151915260448201527f6e6572206f662074686520506978656c436f6e73000000000000000000000000606482015290519081900360840190fd5b600180830180547bffffffffffffffff0000000000000000000000000000000000000000191690559290920191612db1565b600c80546001604060020a038816908110612ed957fe5b60009182526020808320600483040180546001604060020a0360086003909516949094026101000a8402191690559088168252600b905260408120612f1d916150ad565b6040516001604060020a038716907fde081b46744cc92faa6c6d642ed219cefffea3d48bb6886384897031160b9a6190600090a25093949350505050565b81600160a060020a0381161515612faa576040805160e560020a62461bcd02815260206004820152600f60248201526000805160206151ae833981519152604482015290519081900360640190fd5b600160a060020a03831633141561300b576040805160e560020a62461bcd02815260206004820152601360248201527f43616e6e6f7420617070726f76652073656c6600000000000000000000000000604482015290519081900360640190fd5b336000818152600860209081526040808320600160a060020a03881680855290835292819020805460ff1916871515908117909155815190815290519293927f17307eab39ab6107e8899845ad3d59bd9653f200f220920489ca2b5937696c31929181900390910190a3505050565b600254600160a060020a03163314613102576040805160e560020a62461bcd02815260206004820152602560248201527f4f6e6c79207468652061646d696e2063616e2063616c6c20746869732066756e60448201527f6374696f6e000000000000000000000000000000000000000000000000000000606482015290519081900360840190fd5b604051600160a060020a03821690303180156108fc02916000818181858888f19350505050158015613138573d6000803e3d6000fd5b5050565b6060600c8054806020026020016040519081016040528092919081815260200182805480156131ba57602002820191906000526020600020906000905b82829054906101000a900460c060020a02600160c060020a031916815260200190600801906020826007010492830192600103820291508084116131795790505b5050505050905090565b6060816001604060020a0381161515613215576040805160e560020a62461bcd02815260206004820152600d602482015260008051602061522e833981519152604482015290519081900360640190fd5b6001604060020a0383166000908152600b602090815260409182902080548351818402810184019094528084529091830182828015611d5e57600091825260209182902080546001604060020a03168452908202830192909160089101808411611d1b57509498975050505050505050565b60008080808080808080898015156132d7576040805160e560020a62461bcd02815260206004820152600a60248201526000805160206151ee833981519152604482015290519081900360640190fd5b60008b81526004602052604090208054909350600160a060020a03161515613337576040805160e560020a62461bcd028152602060048201526017602482015260008051602061524e833981519152604482015290519081900360640190fd5b825460098054909160a060020a90046001604060020a031690811061335857fe5b60009182526020909120600290910201805484546001830154600a8054949650929360a060020a8084046001604060020a03908116959184041693600160a060020a03908116931691859081106133ab57fe5b90600052602060002090600491828204019190066008029054906101000a900460c060020a0287600101601c9054906101000a900463ffffffff169950995099509950995099509950505050919395979092949650565b600254600160a060020a0316331461348a576040805160e560020a62461bcd02815260206004820152602560248201527f4f6e6c79207468652061646d696e2063616e2063616c6c20746869732066756e60448201527f6374696f6e000000000000000000000000000000000000000000000000000000606482015290519081900360840190fd5b80516131389060039060208401906150d5565b6134a8848484611171565b6134b484848484614a5b565b151561350a576040805160e560020a62461bcd02815260206004820152601560248201527f5472616e7366657220776173206e6f7420736166650000000000000000000000604482015290519081900360640190fd5b50505050565b60008082801515613559576040805160e560020a62461bcd02815260206004820152600a60248201526000805160206151ee833981519152604482015290519081900360640190fd5b60008481526004602052604090208054909250600160a060020a031615156135b9576040805160e560020a62461bcd028152602060048201526017602482015260008051602061524e833981519152604482015290519081900360640190fd5b60008481526004602052604090205460098054909160a060020a90046001604060020a03169081106135e757fe5b600091825260209091206002909102016001015460a060020a90046001604060020a0316949350505050565b60008060008060008060016801000000000000000003600c805490501015156136ac576040805160e560020a62461bcd02815260206004820152602a60248201527f4d6178206e756d626572206f6620636f6c6c656374696f6e732068617320626560448201527f656e207265616368656400000000000000000000000000000000000000000000606482015290519081900360840190fd5b875160011061372b576040805160e560020a62461bcd02815260206004820152602e60248201527f436f6c6c656374696f6e206d75737420636f6e7461696e206d6f72652074686160448201527f6e206f6e6520506978656c436f6e000000000000000000000000000000000000606482015290519081900360840190fd5b600c546001604060020a0381166000908152600b60205260409020895191965094506137578582615079565b50600092505b875183101561399257878381518110151561377457fe5b906020019060200201519150613788611147565b6001604060020a038316106137d5576040805160e560020a62461bcd02815260206004820152601f602482015260008051602061518e833981519152604482015290519081900360640190fd5b600980546001604060020a0384169081106137ec57fe5b9060005260206000209060020201905061380a3382600001546149d1565b1515613874576040805160e560020a62461bcd02815260206004820152603460248201526000805160206151ce83398151915260448201527f6e6572206f662074686520506978656c436f6e73000000000000000000000000606482015290519081900360840190fd5b600181015460a060020a90046001604060020a031615613904576040805160e560020a62461bcd02815260206004820152602360248201527f506978656c436f6e20697320616c726561647920696e206120636f6c6c65637460448201527f696f6e0000000000000000000000000000000000000000000000000000000000606482015290519081900360840190fd5b6001810180547bffffffffffffffff0000000000000000000000000000000000000000191660a060020a6001604060020a038816021790558354829085908590811061394c57fe5b90600052602060002090600491828204019190066008026101000a8154816001604060020a0302191690836001604060020a03160217905550828060010193505061375d565b600c8054906139a49060018301615079565b5086600c866001604060020a03168154811015156139be57fe5b90600052602060002090600491828204019190066008026101000a8154816001604060020a03021916908360c060020a90040217905550846001604060020a031633600160a060020a03167f19c41bfdfa6988beb6f4ed9b9b4bc922dfe576b16b8299b466350ebb8f8ff0cd60405160405180910390a350929695505050505050565b600081815260046020526040812080546060929081908490600160a060020a03161515613aa6576040805160e560020a62461bcd028152602060048201526017602482015260008051602061524e833981519152604482015290519081900360640190fd5b835460098054909160a060020a90046001604060020a0316908110613ac757fe5b90600052602060002090600202019250600a8460000160149054906101000a90046001604060020a03166001604060020a0316815481101515613b0657fe5b600091825260209182902060048204015460038054604080516002610100600185161581026000190190941604601f810188900488028201880190925281815294831660080290910a90920460c060020a0295509192830182828015613bad5780601f10613b8257610100808354040283529160200191613bad565b820191906000526020600020905b815481529060010190602001808311613b9057829003601f168201915b50505050509050613bfe816040805190810160405280600981526020017f3c746f6b656e49643e0000000000000000000000000000000000000000000000815250613bf9896020614bc8565b614d68565b60408051808201909152600c81527f3c746f6b656e496e6465783e000000000000000000000000000000000000000060208201528554919250613c5991839190613bf99060a060020a90046001604060020a03166008614bc8565b9050613ca7816040805190810160405280600681526020017f3c6e616d653e0000000000000000000000000000000000000000000000000000815250613bf98560c060020a90046008614bc8565b60408051808201909152600781527f3c6f776e65723e0000000000000000000000000000000000000000000000000060208201528554919250613cfb91839190613bf990600160a060020a03166014614bc8565b60408051808201909152600981527f3c63726561746f723e000000000000000000000000000000000000000000000060208201526001850154919250613d5291839190613bf990600160a060020a03166014614bc8565b60408051808201909152600d81527f3c64617465437265617465643e0000000000000000000000000000000000000060208201526001850154919250613dad91839190613bf99060e060020a900463ffffffff166008614bc8565b60408051808201909152601181527f3c636f6c6c656374696f6e496e6465783e00000000000000000000000000000060208201526001850154919250613e0b91839190613bf99060a060020a90046001604060020a03166008614bc8565b9695505050505050565b606081600160a060020a0381161515613e66576040805160e560020a62461bcd02815260206004820152600f60248201526000805160206151ae833981519152604482015290519081900360640190fd5b600160a060020a03831660009081526006602090815260409182902080548351818402810184019094528084529091830182828015611d5e57600091825260209182902080546001604060020a03168452908202830192909160089101808411611d1b57509498975050505050505050565b6000816001604060020a0381161515613f29576040805160e560020a62461bcd02815260206004820152600d602482015260008051602061522e833981519152604482015290519081900360640190fd5b613f316122a7565b836001604060020a031610915050919050565b6060806060806060806060806000808a51604051908082528060200260200182016040528015613f7e578160200160208202803883390190505b5095508a51604051908082528060200260200182016040528015613fac578160200160208202803883390190505b5094508a51604051908082528060200260200182016040528015613fda578160200160208202803883390190505b5093508a51604051908082528060200260200182016040528015614008578160200160208202803883390190505b509250600091505b8a51821015614207578a8281518110151561402757fe5b90602001906020020151905061403b611147565b6001604060020a03821610614088576040805160e560020a62461bcd02815260206004820152601f602482015260008051602061518e833981519152604482015290519081900360640190fd5b600980546001604060020a03831690811061409f57fe5b90600052602060002090600202016000015486838151811015156140bf57fe5b60209081029091010152600a80546001604060020a0383169081106140e057fe5b90600052602060002090600491828204019190066008029054906101000a900460c060020a02858381518110151561411457fe5b600160c060020a0319909216602092830290910190910152600980546004916000916001604060020a03851690811061414957fe5b6000918252602080832060029092029091015483528201929092526040019020548451600160a060020a039091169085908490811061418457fe5b600160a060020a03909216602092830290910190910152600980546001604060020a0383169081106141b257fe5b906000526020600020906002020160010160149054906101000a90046001604060020a031683838151811015156141e557fe5b6001604060020a03909216602092830290910190910152600190910190614010565b509399929850909650945092505050565b6000816001604060020a0381161515614269576040805160e560020a62461bcd02815260206004820152600d602482015260008051602061522e833981519152604482015290519081900360640190fd5b6142716122a7565b6001604060020a038416106142be576040805160e560020a62461bcd028152602060048201526019602482015260008051602061520e833981519152604482015290519081900360640190fd5b600c80546001604060020a0385169081106142d557fe5b90600052602060002090600491828204019190066008029054906101000a900460c060020a02915050919050565b600082600160a060020a0381161515614354576040805160e560020a62461bcd02815260206004820152600f60248201526000805160206151ae833981519152604482015290519081900360640190fd5b82600160a060020a03811615156143a3576040805160e560020a62461bcd02815260206004820152600f60248201526000805160206151ae833981519152604482015290519081900360640190fd5b505050600160a060020a03918216600090815260086020908152604080832093909416825291909152205460ff1690565b6060600a8054806020026020016040519081016040528092919081815260200182805480156131ba576000918252602091829020805460c060020a02600160c060020a03191684529082028301929091600891018084116131795790505050505050905090565b600081815260046020526040812054600160a060020a0316801515614498576040805160e560020a62461bcd028152602060048201526017602482015260008051602061524e833981519152604482015290519081900360640190fd5b80600160a060020a031684600160a060020a031614806144d15750600083815260076020526040902054600160a060020a038581169116145b806145015750600160a060020a0380821660009081526008602090815260408083209388168352929052205460ff165b949350505050565b600081815260046020526040902054600160a060020a0383811691161461457a576040805160e560020a62461bcd02815260206004820152601860248201527f496e636f727265637420506978656c436f6e206f776e65720000000000000000604482015290519081900360640190fd5b600081815260076020526040902054600160a060020a031615613138576000908152600760205260409020805473ffffffffffffffffffffffffffffffffffffffff1916905550565b600160a060020a03808316600081815260056020908152604080832086845260049092528220805491949093911614614646576040805160e560020a62461bcd02815260206004820152601960248201527f46726f6d206164647265737320697320696e636f727265637400000000000000604482015290519081900360640190fd5b815473ffffffffffffffffffffffffffffffffffffffff1916825582548390600019810190811061467357fe5b90600052602060002090600491828204019190066008029054906101000a90046001604060020a031690508260018480549050038154811015156146b357fe5b90600052602060002090600491828204019190066008026101000a8154906001604060020a030219169055828054809190600190036146f29190615079565b508254825460e060020a900463ffffffff1610156147d557815483548291859160e060020a90910463ffffffff1690811061472957fe5b90600052602060002090600491828204019190066008026101000a8154816001604060020a0302191690836001604060020a0316021790555081600001601c9054906101000a900463ffffffff16600460006009846001604060020a031681548110151561479357fe5b9060005260206000209060020201600001548152602001908152602001600020600001601c6101000a81548163ffffffff021916908363ffffffff1602179055505b5080547bffffffffffffffffffffffffffffffffffffffffffffffffffffffff169055505050565b600160a060020a03821660009081526005602090815260408083208484526004909252822081549192909163ffffffff116148a8576040805160e560020a62461bcd02815260206004820152603260248201527f4d6178206e756d626572206f6620506978656c436f6e7320706572206f776e6560448201527f7220686173206265656e20726561636865640000000000000000000000000000606482015290519081900360840190fd5b8154600160a060020a031615614908576040805160e560020a62461bcd02815260206004820152601d60248201527f506978656c436f6e20616c72656164792068617320616e206f776e6572000000604482015290519081900360640190fd5b50805473ffffffffffffffffffffffffffffffffffffffff1916600160a060020a03851617815581548061493f8460018301615079565b5081547bffffffffffffffffffffffffffffffffffffffffffffffffffffffff1660e060020a63ffffffff83160217808355835460a060020a9091046001604060020a03169084908390811061499157fe5b90600052602060002090600491828204019190066008026101000a8154816001604060020a0302191690836001604060020a031602179055505050505050565b6000818152600460205260408120805460098054600160a060020a0383169285929160a060020a9091046001604060020a0316908110614a0d57fe5b6000918252602090912060016002909202010154600160a060020a039081169150868116908316148015613e0b575080600160a060020a031686600160a060020a0316149695505050505050565b600080614a7085600160a060020a0316614efc565b1515614a7f5760019150614bbf565b6040517f150b7a020000000000000000000000000000000000000000000000000000000081523360048201818152600160a060020a03898116602485015260448401889052608060648501908152875160848601528751918a169463150b7a0294938c938b938b93909160a490910190602085019080838360005b83811015614b12578181015183820152602001614afa565b50505050905090810190601f168015614b3f5780820380516001836020036101000a031916815260200191505b5095505050505050602060405180830381600087803b158015614b6157600080fd5b505af1158015614b75573d6000803e3d6000fd5b505050506040513d6020811015614b8b57600080fd5b5051600160e060020a031981167f150b7a020000000000000000000000000000000000000000000000000000000014925090505b50949350505050565b606080600080600080866002026002016040519080825280601f01601f191660200182016040528015614c05578160200160208202803883390190505b509450603060f860020a02856000815181101515614c1f57fe5b906020010190600160f860020a031916908160001a90535084517f78000000000000000000000000000000000000000000000000000000000000009086906001908110614c6857fe5b906020010190600160f860020a031916908160001a905350600093505b86841015614d5c5783600188030360080260020a88811515614ca357fe5b0460f860020a02925060108360f860020a900460ff16811515614cc257fe5b0460f860020a0291508160f860020a90046010028360f860020a90040360f860020a029050614cf082614f04565b8585600202600201815181101515614d0457fe5b906020010190600160f860020a031916908160001a905350614d2581614f04565b8585600202600301815181101515614d3957fe5b906020010190600160f860020a031916908160001a905350600190930192614c85565b50929695505050505050565b606083838360008481614d7b8686614f80565b92508551831015614eeb5784518451875101036040519080825280601f01601f191660200182016040528015614dbb578160200160208202803883390190505b509150600090505b82811015614e1a578581815181101515614dd957fe5b90602001015160f860020a900460f860020a028282815181101515614dfa57fe5b906020010190600160f860020a031916908160001a905350600101614dc3565b5060005b8351811015614e78578381815181101515614e3557fe5b90602001015160f860020a900460f860020a0282828501815181101515614e5857fe5b906020010190600160f860020a031916908160001a905350600101614e1e565b5060005b84518301865103811015614ee35785818651850101815181101515614e9d57fe5b90602001015160f860020a900460f860020a0282828651860101815181101515614ec357fe5b906020010190600160f860020a031916908160001a905350600101614e7c565b819650614eef565b8596505b5050505050509392505050565b6000903b1190565b60007f0a000000000000000000000000000000000000000000000000000000000000007fff0000000000000000000000000000000000000000000000000000000000000083161015614f68578160f860020a900460300160f860020a029050610cc1565b8160f860020a900460570160f860020a029050610cc1565b60008080805b600185510386510383101561504257506001905060005b8451811015615029578481815181101515614fb457fe5b90602001015160f860020a900460f860020a02600160f860020a03191686828501815181101515614fe157fe5b60209101015160f860020a90819004027fff0000000000000000000000000000000000000000000000000000000000000016146150215760009150615029565b600101614f9d565b811561503757829350611f8f565b600190920191614f86565b505092519392505050565b815481835581811115611623576002028160020283600052602060002091820191016116239190615153565b8154818355818111156116235760030160049004816003016004900483600052602060002091820191016116239190615173565b5080546000825560030160049004906000526020600020908101906150d29190615173565b50565b828054600181600116156101000203166002900490600052602060002090601f016020900481019282601f1061511657805160ff1916838001178555615143565b82800160010185558215615143579182015b82811115615143578251825591602001919060010190615128565b5061514f929150615173565b5090565b610e3391905b8082111561514f5760008082556001820155600201615159565b610e3391905b8082111561514f57600081556001016151795600506978656c436f6e20696e646578206973206f7574206f6620626f756e647300496e76616c69642061646472657373000000000000000000000000000000000053656e646572206973206e6f74207468652063726561746f7220616e64206f77496e76616c696420494400000000000000000000000000000000000000000000436f6c6c656374696f6e20646f6573206e6f7420657869737400000000000000496e76616c696420696e64657800000000000000000000000000000000000000506978656c436f6e20646f6573206e6f74206578697374000000000000000000a165627a7a72305820543dbcc24a33e2886ec7d2698cdf8ec6718f1d54d66cac1291f35a5b85f787870029",
  "source": "pragma solidity ^0.4.24;\r\n\r\nimport \"./AddressUtils.sol\";\r\nimport \"./StringUtils.sol\";\r\nimport \"./Ownable.sol\";\r\nimport \"./ERC721.sol\";\r\nimport \"./ERC721Receiver.sol\";\r\n\r\n\r\n/**\r\n * @title PixelCons Core\r\n * @notice The purpose of this contract is to provide a shared ecosystem of minimal pixel art tokens for everyone to use. All users are treated \r\n * equally with the exception of an admin user who only controls the ERC721 metadata function which points to the app website. No fees are \r\n * required to interact with this contract beyond base gas fees. Here are a few notes on the basic workings of the contract:\r\n *    PixelCons [The core ERC721 token of this contract]\r\n *        -Each PixelCon is unique with an ID that encodes all its pixel data\r\n *        -PixelCons can be identified by both TokenIDs and TokenIndexes (index requires fewer bits to store)\r\n *        -A PixelCon can never be destroyed\r\n *        -Total number of PixelCons is limited to 18,446,744,073,709,551,616 (2^64)\r\n *        -A single account can only hold 4,294,967,296 PixelCons (2^32)\r\n *    Collections [Grouping mechanism for associating PixelCons together]\r\n *        -Collections are identified by an index (zero is invalid)\r\n *        -Collections can only be created by a user who both created and currently owns all its PixelCons\r\n *        -Total number of collections is limited to 18,446,744,073,709,551,616 (2^64)\r\n * For more information about PixelCons, please visit (https://pixelcons.io)\r\n * @dev This contract follows the ERC721 token standard with additional functions for creating, grouping, etc.\r\n * See (https://github.com/OpenZeppelin/openzeppelin-solidity)\r\n * @author PixelCons\r\n */\r\ncontract PixelCons is ERC721, Ownable {\r\n\r\n\tusing AddressUtils for address;\r\n\r\n\t/** @dev Equal to 'bytes4(keccak256(\"onERC721Received(address,address,uint256,bytes)\"))' */\r\n\tbytes4 private constant ERC721_RECEIVED = 0x150b7a02;\r\n\r\n\r\n\t/////////////////////////////////////////////////////////////////////////////////////////////////////////////////////////////////////////////\r\n\t///////////////////////////////////////////////////////////// Structs ///////////////////////////////////////////////////////////////////////\r\n\t/////////////////////////////////////////////////////////////////////////////////////////////////////////////////////////////////////////////\r\n\r\n\t/** @dev The main PixelCon struct */\r\n\tstruct PixelCon {\r\n\t\tuint256 tokenId;\r\n\t\t//// ^256bits ////\r\n\t\taddress creator;\r\n\t\tuint64 collectionIndex;\r\n\t\tuint32 dateCreated;\r\n\t}\r\n\r\n\t/** @dev A struct linking a token owner with its token index */\r\n\tstruct TokenLookup {\r\n\t\taddress owner;\r\n\t\tuint64 tokenIndex;\r\n\t\tuint32 ownedIndex;\r\n\t}\r\n\r\n\r\n\t/////////////////////////////////////////////////////////////////////////////////////////////////////////////////////////////////////////////\r\n\t///////////////////////////////////////////////////////////// Storage ///////////////////////////////////////////////////////////////////////\r\n\t/////////////////////////////////////////////////////////////////////////////////////////////////////////////////////////////////////////////\r\n\r\n\t/**  @dev The address thats allowed to withdraw volunteered funds sent to this contract */\r\n\taddress internal admin;\r\n\r\n\t/** @dev The URI template for retrieving token metadata */\r\n\tstring internal tokenURITemplate;\r\n\r\n\t////////////////// PixelCon Tokens //////////////////\r\n\r\n\t/** @dev Mapping from token ID to owner/index */\r\n\tmapping(uint256 => TokenLookup) internal tokenLookup;\r\n\r\n\t/**  @dev Mapping from owner to token indexes */\r\n\tmapping(address => uint64[]) internal ownedTokens;\r\n\r\n\t/**  @dev Mapping from creator to token indexes */\r\n\tmapping(address => uint64[]) internal createdTokens;\r\n\r\n\t/** @dev Mapping from token ID to approved address */\r\n\tmapping(uint256 => address) internal tokenApprovals;\r\n\r\n\t/** @dev Mapping from owner to operator approvals */\r\n\tmapping(address => mapping(address => bool)) internal operatorApprovals;\r\n\r\n\t/** @dev An array containing all PixelCons in existence */\r\n\tPixelCon[] internal pixelcons;\r\n\r\n\t/** @dev An array that mirrors 'pixelcons' in terms of indexing, but stores only name data */\r\n\tbytes8[] internal pixelconNames;\r\n\r\n\t////////////////// Collections //////////////////\r\n\r\n\t/** @dev Mapping from collection index to token indexes */\r\n\tmapping(uint64 => uint64[]) internal collectionTokens;\r\n\r\n\t/** @dev An array that mirrors 'collectionTokens' in terms of indexing, but stores only name data */\r\n\tbytes8[] internal collectionNames;\r\n\r\n\r\n\t/////////////////////////////////////////////////////////////////////////////////////////////////////////////////////////////////////////////\r\n\t///////////////////////////////////////////////////////////// Events ////////////////////////////////////////////////////////////////////////\r\n\t/////////////////////////////////////////////////////////////////////////////////////////////////////////////////////////////////////////////\r\n\r\n\t/** @dev PixelCon token events */\r\n\tevent Create(uint256 indexed _tokenId, address indexed _creator, uint64 _tokenIndex, address _to);\r\n\tevent Rename(uint256 indexed _tokenId, bytes8 _newName);\r\n\r\n\t/**  @dev PixelCon collection events */\r\n\tevent CreateCollection(address indexed _creator, uint64 indexed _collectionIndex);\r\n\tevent RenameCollection(uint64 indexed _collectionIndex, bytes8 _newName);\r\n\tevent ClearCollection(uint64 indexed _collectionIndex);\r\n\r\n\r\n\t/////////////////////////////////////////////////////////////////////////////////////////////////////////////////////////////////////////////\r\n\t/////////////////////////////////////////////////////////// Modifiers ///////////////////////////////////////////////////////////////////////\r\n\t/////////////////////////////////////////////////////////////////////////////////////////////////////////////////////////////////////////////\r\n\r\n\t/**  @dev Small validators for quick validation of function parameters */\r\n\tmodifier validIndex(uint64 _index) {\r\n\t\trequire(_index != uint64(0), \"Invalid index\");\r\n\t\t_;\r\n\t}\r\n\tmodifier validId(uint256 _id) {\r\n\t\trequire(_id != uint256(0), \"Invalid ID\");\r\n\t\t_;\r\n\t}\r\n\tmodifier validAddress(address _address) {\r\n\t\trequire(_address != address(0), \"Invalid address\");\r\n\t\t_;\r\n\t}\r\n\r\n\r\n\t/////////////////////////////////////////////////////////////////////////////////////////////////////////////////////////////////////////////\r\n\t////////////////////////////////////////////////////////// PixelCons Core ///////////////////////////////////////////////////////////////////\r\n\t/////////////////////////////////////////////////////////////////////////////////////////////////////////////////////////////////////////////\r\n\r\n\t/**\r\n\t * @notice Contract constructor\r\n\t */\r\n\tconstructor() public\r\n\t{\r\n\t\t//admin defaults to the contract creator\r\n\t\tadmin = msg.sender;\r\n\r\n\t\t//fill zero index pixelcon collection\r\n\t\tcollectionNames.length++;\r\n\t}\r\n\r\n\t/**\r\n\t * @notice Get the current admin\r\n\t * @return The current admin\r\n\t */\r\n\tfunction getAdmin() public view returns(address)\r\n\t{\r\n\t\treturn admin;\r\n\t}\r\n\r\n\t/**\r\n\t * @notice Withdraw all volunteered funds to `(_to)`\r\n\t * @param _to Address to withdraw the funds to\r\n\t */\r\n\tfunction adminWithdraw(address _to) public\r\n\t{\r\n\t\trequire(msg.sender == admin, \"Only the admin can call this function\");\r\n\t\t_to.transfer(address(this).balance);\r\n\t}\r\n\r\n\t/**\r\n\t * @notice Change the admin to `(_to)`\r\n\t * @param _newAdmin New admin address\r\n\t */\r\n\tfunction adminChange(address _newAdmin) public\r\n\t{\r\n\t\trequire(msg.sender == admin, \"Only the admin can call this function\");\r\n\t\tadmin = _newAdmin;\r\n\t}\r\n\r\n\t/**\r\n\t * @notice Change the token URI template\r\n\t * @param _newTokenURITemplate New token URI template\r\n\t */\r\n\tfunction adminSetTokenURITemplate(string _newTokenURITemplate) public\r\n\t{\r\n\t\trequire(msg.sender == admin, \"Only the admin can call this function\");\r\n\t\ttokenURITemplate = _newTokenURITemplate;\r\n\t}\r\n\r\n\t////////////////// PixelCon Tokens //////////////////\r\n\r\n\t/**\r\n\t * @notice Create PixelCon `(_tokenId)`\r\n\t * @dev Throws if the token ID already exists\r\n\t * @param _to Address that will own the PixelCon\r\n\t * @param _tokenId ID of the PixelCon to be creates\r\n\t * @param _name PixelCon name (not required)\r\n\t * @return The index of the new PixelCon\r\n\t */\r\n\tfunction create(address _to, uint256 _tokenId, bytes8 _name) public payable validAddress(_to) validId(_tokenId) returns(uint64)\r\n\t{\r\n\t\tTokenLookup storage lookupData = tokenLookup[_tokenId];\r\n\t\trequire(pixelcons.length < uint256(2 ** 64) - 1, \"Max number of PixelCons has been reached\");\r\n\t\trequire(lookupData.owner == address(0), \"PixelCon already exists\");\r\n\r\n\t\t//get created timestamp (zero as date indicates null)\r\n\t\tuint32 dateCreated = 0;\r\n\t\tif (now < uint256(2 ** 32)) dateCreated = uint32(now);\r\n\r\n\t\t//create PixelCon token and set owner\r\n\t\tuint64 index = uint64(pixelcons.length);\r\n\t\tlookupData.tokenIndex = index;\r\n\t\tpixelcons.length++;\r\n\t\tpixelconNames.length++;\r\n\t\tPixelCon storage pixelcon = pixelcons[index];\r\n\t\tpixelcon.tokenId = _tokenId;\r\n\t\tpixelcon.creator = msg.sender;\r\n\t\tpixelcon.dateCreated = dateCreated;\r\n\t\tpixelconNames[index] = _name;\r\n\t\tuint64[] storage createdList = createdTokens[msg.sender];\r\n\t\tuint createdListIndex = createdList.length;\r\n\t\tcreatedList.length++;\r\n\t\tcreatedList[createdListIndex] = index;\r\n\t\taddTokenTo(_to, _tokenId);\r\n\r\n\t\temit Create(_tokenId, msg.sender, index, _to);\r\n\t\temit Transfer(address(0), _to, _tokenId);\r\n\t\treturn index;\r\n\t}\r\n\r\n\t/**\r\n\t * @notice Rename PixelCon `(_tokenId)`\r\n\t * @dev Throws if the caller is not the owner and creator of the token\r\n\t * @param _tokenId ID of the PixelCon to rename\r\n\t * @param _name New name\r\n\t * @return The index of the PixelCon\r\n\t */\r\n\tfunction rename(uint256 _tokenId, bytes8 _name) public validId(_tokenId) returns(uint64)\r\n\t{\r\n\t\trequire(isCreatorAndOwner(msg.sender, _tokenId), \"Sender is not the creator and owner\");\r\n\r\n\t\t//update name\r\n\t\tTokenLookup storage lookupData = tokenLookup[_tokenId];\r\n\t\tpixelconNames[lookupData.tokenIndex] = _name;\r\n\r\n\t\temit Rename(_tokenId, _name);\r\n\t\treturn lookupData.tokenIndex;\r\n\t}\r\n\r\n\t/**\r\n\t * @notice Check if PixelCon `(_tokenId)` exists\r\n\t * @param _tokenId ID of the PixelCon to query the existence of\r\n\t * @return True if the PixelCon exists\r\n\t */\r\n\tfunction exists(uint256 _tokenId) public view validId(_tokenId) returns(bool)\r\n\t{\r\n\t\taddress owner = tokenLookup[_tokenId].owner;\r\n\t\treturn owner != address(0);\r\n\t}\r\n\r\n\t/**\r\n\t * @notice Get the creator of PixelCon `(_tokenId)`\r\n\t * @dev Throws if PixelCon does not exist\r\n\t * @param _tokenId ID of the PixelCon to query the creator of\r\n\t * @return Creator address for PixelCon\r\n\t */\r\n\tfunction creatorOf(uint256 _tokenId) public view validId(_tokenId) returns(address)\r\n\t{\r\n\t\tTokenLookup storage lookupData = tokenLookup[_tokenId];\r\n\t\trequire(lookupData.owner != address(0), \"PixelCon does not exist\");\r\n\r\n\t\treturn pixelcons[lookupData.tokenIndex].creator;\r\n\t}\r\n\r\n\t/**\r\n\t * @notice Get the total number of PixelCons created by `(_creator)`\r\n\t * @param _creator Address to query the total of\r\n\t * @return Total number of PixelCons created by given address\r\n\t */\r\n\tfunction creatorTotal(address _creator) public view validAddress(_creator) returns(uint256)\r\n\t{\r\n\t\treturn createdTokens[_creator].length;\r\n\t}\r\n\r\n\t/**\r\n\t * @notice Enumerate PixelCon created by `(_creator)`\r\n\t * @dev Throws if index is out of bounds\r\n\t * @param _creator Creator address\r\n\t * @param _index Counter less than `creatorTotal(_creator)`\r\n\t * @return PixelCon ID for the `(_index)`th PixelCon created by `(_creator)`\r\n\t */\r\n\tfunction tokenOfCreatorByIndex(address _creator, uint256 _index) public view validAddress(_creator) returns(uint256)\r\n\t{\r\n\t\trequire(_index < createdTokens[_creator].length, \"Index is out of bounds\");\r\n\t\tPixelCon storage pixelcon = pixelcons[createdTokens[_creator][_index]];\r\n\t\treturn pixelcon.tokenId;\r\n\t}\r\n\r\n\t/**\r\n\t * @notice Get all details of PixelCon `(_tokenId)`\r\n\t * @dev Throws if PixelCon does not exist\r\n\t * @param _tokenId ID of the PixelCon to get details for\r\n\t * @return PixelCon details\r\n\t */\r\n\tfunction getTokenData(uint256 _tokenId) public view validId(_tokenId)\r\n\treturns(uint256 _tknId, uint64 _tknIdx, uint64 _collectionIdx, address _owner, address _creator, bytes8 _name, uint32 _dateCreated)\r\n\t{\r\n\t\tTokenLookup storage lookupData = tokenLookup[_tokenId];\r\n\t\trequire(lookupData.owner != address(0), \"PixelCon does not exist\");\r\n\r\n\t\tPixelCon storage pixelcon = pixelcons[lookupData.tokenIndex];\r\n\t\treturn (pixelcon.tokenId, lookupData.tokenIndex, pixelcon.collectionIndex, lookupData.owner,\r\n\t\t\tpixelcon.creator, pixelconNames[lookupData.tokenIndex], pixelcon.dateCreated);\r\n\t}\r\n\r\n\t/**\r\n\t * @notice Get all details of PixelCon #`(_tokenIndex)`\r\n\t * @dev Throws if PixelCon does not exist\r\n\t * @param _tokenIndex Index of the PixelCon to get details for\r\n\t * @return PixelCon details\r\n\t */\r\n\tfunction getTokenDataByIndex(uint64 _tokenIndex) public view\r\n\treturns(uint256 _tknId, uint64 _tknIdx, uint64 _collectionIdx, address _owner, address _creator, bytes8 _name, uint32 _dateCreated)\r\n\t{\r\n\t\trequire(_tokenIndex < totalSupply(), \"PixelCon index is out of bounds\");\r\n\r\n\t\tPixelCon storage pixelcon = pixelcons[_tokenIndex];\r\n\t\tTokenLookup storage lookupData = tokenLookup[pixelcon.tokenId];\r\n\t\treturn (pixelcon.tokenId, lookupData.tokenIndex, pixelcon.collectionIndex, lookupData.owner,\r\n\t\t\tpixelcon.creator, pixelconNames[lookupData.tokenIndex], pixelcon.dateCreated);\r\n\t}\r\n\r\n\t/**\r\n\t * @notice Get the index of PixelCon `(_tokenId)`\r\n\t * @dev Throws if PixelCon does not exist\r\n\t * @param _tokenId ID of the PixelCon to query the index of\r\n\t * @return Index of the given PixelCon ID\r\n\t */\r\n\tfunction getTokenIndex(uint256 _tokenId) validId(_tokenId) public view returns(uint64)\r\n\t{\r\n\t\tTokenLookup storage lookupData = tokenLookup[_tokenId];\r\n\t\trequire(lookupData.owner != address(0), \"PixelCon does not exist\");\r\n\r\n\t\treturn lookupData.tokenIndex;\r\n\t}\r\n\r\n\t////////////////// Collections //////////////////\r\n\r\n\t/**\r\n\t * @notice Create PixelCon collection\r\n\t * @dev Throws if the message sender is not the owner and creator of the given tokens\r\n\t * @param _tokenIndexes Token indexes to group together into a collection\r\n\t * @param _name Name of the collection\r\n\t * @return Index of the new collection\r\n\t */\r\n\tfunction createCollection(uint64[] _tokenIndexes, bytes8 _name) public returns(uint64)\r\n\t{\r\n\t\trequire(collectionNames.length < uint256(2 ** 64) - 1, \"Max number of collections has been reached\");\r\n\t\trequire(_tokenIndexes.length > 1, \"Collection must contain more than one PixelCon\");\r\n\r\n\t\t//loop through given indexes to add to collection and check additional requirements\r\n\t\tuint64 collectionIndex = uint64(collectionNames.length);\r\n\t\tuint64[] storage collection = collectionTokens[collectionIndex];\r\n\t\tcollection.length = _tokenIndexes.length;\r\n\t\tfor (uint i = 0; i < _tokenIndexes.length; i++) {\r\n\t\t\tuint64 tokenIndex = _tokenIndexes[i];\r\n\t\t\trequire(tokenIndex < totalSupply(), \"PixelCon index is out of bounds\");\r\n\r\n\t\t\tPixelCon storage pixelcon = pixelcons[tokenIndex];\r\n\t\t\trequire(isCreatorAndOwner(msg.sender, pixelcon.tokenId), \"Sender is not the creator and owner of the PixelCons\");\r\n\t\t\trequire(pixelcon.collectionIndex == uint64(0), \"PixelCon is already in a collection\");\r\n\r\n\t\t\tpixelcon.collectionIndex = collectionIndex;\r\n\t\t\tcollection[i] = tokenIndex;\r\n\t\t}\r\n\t\tcollectionNames.length++;\r\n\t\tcollectionNames[collectionIndex] = _name;\r\n\r\n\t\temit CreateCollection(msg.sender, collectionIndex);\r\n\t\treturn collectionIndex;\r\n\t}\r\n\r\n\t/**\r\n\t * @notice Rename collection #`(_collectionIndex)`\r\n\t * @dev Throws if the message sender is not the owner and creator of all collection tokens\r\n\t * @param _collectionIndex Index of the collection to rename\r\n\t * @param _name New name\r\n\t * @return Index of the collection\r\n\t */\r\n\tfunction renameCollection(uint64 _collectionIndex, bytes8 _name) validIndex(_collectionIndex) public returns(uint64)\r\n\t{\r\n\t\trequire(_collectionIndex < totalCollections(), \"Collection does not exist\");\r\n\r\n\t\t//loop through the collections token indexes and check additional requirements\r\n\t\tuint64[] storage collection = collectionTokens[_collectionIndex];\r\n\t\trequire(collection.length > 0, \"Collection has been cleared\");\r\n\t\tfor (uint i = 0; i < collection.length; i++) {\r\n\t\t\tPixelCon storage pixelcon = pixelcons[collection[i]];\r\n\t\t\trequire(isCreatorAndOwner(msg.sender, pixelcon.tokenId), \"Sender is not the creator and owner of the PixelCons\");\r\n\t\t}\r\n\r\n\t\t//update\r\n\t\tcollectionNames[_collectionIndex] = _name;\r\n\r\n\t\temit RenameCollection(_collectionIndex, _name);\r\n\t\treturn _collectionIndex;\r\n\t}\r\n\r\n\t/**\r\n\t * @notice Clear collection #`(_collectionIndex)`\r\n\t * @dev Throws if the message sender is not the owner and creator of all collection tokens\r\n\t * @param _collectionIndex Index of the collection to clear out\r\n\t * @return Index of the collection\r\n\t */\r\n\tfunction clearCollection(uint64 _collectionIndex) validIndex(_collectionIndex) public returns(uint64)\r\n\t{\r\n\t\trequire(_collectionIndex < totalCollections(), \"Collection does not exist\");\r\n\r\n\t\t//loop through the collections token indexes and check additional requirements while clearing pixelcon collection index\r\n\t\tuint64[] storage collection = collectionTokens[_collectionIndex];\r\n\t\trequire(collection.length > 0, \"Collection is already cleared\");\r\n\t\tfor (uint i = 0; i < collection.length; i++) {\r\n\t\t\tPixelCon storage pixelcon = pixelcons[collection[i]];\r\n\t\t\trequire(isCreatorAndOwner(msg.sender, pixelcon.tokenId), \"Sender is not the creator and owner of the PixelCons\");\r\n\r\n\t\t\tpixelcon.collectionIndex = 0;\r\n\t\t}\r\n\r\n\t\t//clear out collection data\r\n\t\tdelete collectionNames[_collectionIndex];\r\n\t\tdelete collectionTokens[_collectionIndex];\r\n\r\n\t\temit ClearCollection(_collectionIndex);\r\n\t\treturn _collectionIndex;\r\n\t}\r\n\r\n\t/**\r\n\t * @notice Check if collection #`(_collectionIndex)` exists\r\n\t * @param _collectionIndex Index of the collection to query the existence of\r\n\t * @return True if collection exists\r\n\t */\r\n\tfunction collectionExists(uint64 _collectionIndex) public view validIndex(_collectionIndex) returns(bool)\r\n\t{\r\n\t\treturn _collectionIndex < totalCollections();\r\n\t}\r\n\r\n\t/**\r\n\t * @notice Check if collection #`(_collectionIndex)` has been cleared\r\n\t * @dev Throws if the collection index is out of bounds\r\n\t * @param _collectionIndex Index of the collection to query the state of\r\n\t * @return True if collection has been cleared\r\n\t */\r\n\tfunction collectionCleared(uint64 _collectionIndex) public view validIndex(_collectionIndex) returns(bool)\r\n\t{\r\n\t\trequire(_collectionIndex < totalCollections(), \"Collection does not exist\");\r\n\t\treturn collectionTokens[_collectionIndex].length == uint256(0);\r\n\t}\r\n\r\n\t/**\r\n\t * @notice Get the total number of collections\r\n\t * @return Total number of collections\r\n\t */\r\n\tfunction totalCollections() public view returns(uint256)\r\n\t{\r\n\t\treturn collectionNames.length;\r\n\t}\r\n\r\n\t/**\r\n\t * @notice Get the collection index of PixelCon `(_tokenId)`\r\n\t * @dev Throws if the PixelCon does not exist\r\n\t * @param _tokenId ID of the PixelCon to query the collection of\r\n\t * @return Collection index of given PixelCon\r\n\t */\r\n\tfunction collectionOf(uint256 _tokenId) public view validId(_tokenId) returns(uint256)\r\n\t{\r\n\t\tTokenLookup storage lookupData = tokenLookup[_tokenId];\r\n\t\trequire(lookupData.owner != address(0), \"PixelCon does not exist\");\r\n\r\n\t\treturn pixelcons[tokenLookup[_tokenId].tokenIndex].collectionIndex;\r\n\t}\r\n\r\n\t/**\r\n\t * @notice Get the total number of PixelCons in collection #`(_collectionIndex)`\r\n\t * @dev Throws if the collection does not exist\r\n\t * @param _collectionIndex Collection index to query the total of\r\n\t * @return Total number of PixelCons in the collection\r\n\t */\r\n\tfunction collectionTotal(uint64 _collectionIndex) public view validIndex(_collectionIndex) returns(uint256)\r\n\t{\r\n\t\trequire(_collectionIndex < totalCollections(), \"Collection does not exist\");\r\n\t\treturn collectionTokens[_collectionIndex].length;\r\n\t}\r\n\r\n\t/**\r\n\t * @notice Get the name of collection #`(_collectionIndex)`\r\n\t * @dev Throws if the collection does not exist\r\n\t * @param _collectionIndex Collection index to query the name of\r\n\t * @return Collection name\r\n\t */\r\n\tfunction getCollectionName(uint64 _collectionIndex) public view validIndex(_collectionIndex) returns(bytes8)\r\n\t{\r\n\t\trequire(_collectionIndex < totalCollections(), \"Collection does not exist\");\r\n\t\treturn collectionNames[_collectionIndex];\r\n\t}\r\n\r\n\t/**\r\n\t * @notice Enumerate PixelCon in collection #`(_collectionIndex)`\r\n\t * @dev Throws if the collection does not exist or index is out of bounds\r\n\t * @param _collectionIndex Collection index\r\n\t * @param _index Counter less than `collectionTotal(_collection)`\r\n\t * @return PixelCon ID for the `(_index)`th PixelCon in collection #`(_collectionIndex)`\r\n\t */\r\n\tfunction tokenOfCollectionByIndex(uint64 _collectionIndex, uint256 _index) public view validIndex(_collectionIndex) returns(uint256)\r\n\t{\r\n\t\trequire(_collectionIndex < totalCollections(), \"Collection does not exist\");\r\n\t\trequire(_index < collectionTokens[_collectionIndex].length, \"Index is out of bounds\");\r\n\t\tPixelCon storage pixelcon = pixelcons[collectionTokens[_collectionIndex][_index]];\r\n\t\treturn pixelcon.tokenId;\r\n\t}\r\n\r\n\t////////////////// Web3 Only //////////////////\r\n\r\n\t/**\r\n\t * @notice Get the indexes of all PixelCons owned by `(_owner)`\r\n\t * @dev This function is for web3 calls only, as it returns a dynamic array\r\n\t * @param _owner Owner address\r\n\t * @return PixelCon indexes\r\n\t */\r\n\tfunction getForOwner(address _owner) public view validAddress(_owner) returns(uint64[])\r\n\t{\r\n\t\treturn ownedTokens[_owner];\r\n\t}\r\n\r\n\t/**\r\n\t * @notice Get the indexes of all PixelCons created by `(_creator)`\r\n\t * @dev This function is for web3 calls only, as it returns a dynamic array\r\n\t * @param _creator Creator address \r\n\t * @return PixelCon indexes\r\n\t */\r\n\tfunction getForCreator(address _creator) public view validAddress(_creator) returns(uint64[])\r\n\t{\r\n\t\treturn createdTokens[_creator];\r\n\t}\r\n\r\n\t/**\r\n\t * @notice Get the indexes of all PixelCons in collection #`(_collectionIndex)`\r\n\t * @dev This function is for web3 calls only, as it returns a dynamic array\r\n\t * @param _collectionIndex Collection index\r\n\t * @return PixelCon indexes\r\n\t */\r\n\tfunction getForCollection(uint64 _collectionIndex) public view validIndex(_collectionIndex) returns(uint64[])\r\n\t{\r\n\t\treturn collectionTokens[_collectionIndex];\r\n\t}\r\n\r\n\t/**\r\n\t * @notice Get the basic data for the given PixelCon indexes\r\n\t * @dev This function is for web3 calls only, as it returns a dynamic array\r\n\t * @param _tokenIndexes List of PixelCon indexes\r\n\t * @return All PixelCon basic data\r\n\t */\r\n\tfunction getBasicData(uint64[] _tokenIndexes) public view returns(uint256[], bytes8[], address[], uint64[])\r\n\t{\r\n\t\tuint256[] memory tokenIds = new uint256[](_tokenIndexes.length);\r\n\t\tbytes8[] memory names = new bytes8[](_tokenIndexes.length);\r\n\t\taddress[] memory owners = new address[](_tokenIndexes.length);\r\n\t\tuint64[] memory collectionIdxs = new uint64[](_tokenIndexes.length);\r\n\r\n\t\tfor (uint i = 0; i < _tokenIndexes.length; i++)\t{\r\n\t\t\tuint64 tokenIndex = _tokenIndexes[i];\r\n\t\t\trequire(tokenIndex < totalSupply(), \"PixelCon index is out of bounds\");\r\n\r\n\t\t\ttokenIds[i] = pixelcons[tokenIndex].tokenId;\r\n\t\t\tnames[i] = pixelconNames[tokenIndex];\r\n\t\t\towners[i] = tokenLookup[pixelcons[tokenIndex].tokenId].owner;\r\n\t\t\tcollectionIdxs[i] = pixelcons[tokenIndex].collectionIndex;\r\n\t\t}\r\n\t\treturn (tokenIds, names, owners, collectionIdxs);\r\n\t}\r\n\r\n\t/**\r\n\t * @notice Get the names of all PixelCons\r\n\t * @dev This function is for web3 calls only, as it returns a dynamic array\r\n\t * @return The names of all PixelCons in existence\r\n\t */\r\n\tfunction getAllNames() public view returns(bytes8[])\r\n\t{\r\n\t\treturn pixelconNames;\r\n\t}\r\n\r\n\t/**\r\n\t * @notice Get the names of all PixelCons from index `(_startIndex)` to `(_endIndex)`\r\n\t * @dev This function is for web3 calls only, as it returns a dynamic array\r\n\t * @return The names of the PixelCons in the given range\r\n\t */\r\n\tfunction getNamesInRange(uint64 _startIndex, uint64 _endIndex) public view returns(bytes8[])\r\n\t{\r\n\t\trequire(_startIndex <= totalSupply(), \"Start index is out of bounds\");\r\n\t\trequire(_endIndex <= totalSupply(), \"End index is out of bounds\");\r\n\t\trequire(_startIndex <= _endIndex, \"End index is less than the start index\");\r\n\r\n\t\tuint64 length = _endIndex - _startIndex;\r\n\t\tbytes8[] memory names = new bytes8[](length);\r\n\t\tfor (uint i = 0; i < length; i++)\t{\r\n\t\t\tnames[i] = pixelconNames[_startIndex + i];\r\n\t\t}\r\n\t\treturn names;\r\n\t}\r\n\r\n\t/**\r\n\t * @notice Get details of collection #`(_collectionIndex)`\r\n\t * @dev This function is for web3 calls only, as it returns a dynamic array\r\n\t * @param _collectionIndex Index of the collection to get the data of\r\n\t * @return Collection name and included PixelCon indexes\r\n\t */\r\n\tfunction getCollectionData(uint64 _collectionIndex) public view validIndex(_collectionIndex) returns(bytes8, uint64[])\r\n\t{\r\n\t\trequire(_collectionIndex < totalCollections(), \"Collection does not exist\");\r\n\t\treturn (collectionNames[_collectionIndex], collectionTokens[_collectionIndex]);\r\n\t}\r\n\r\n\t/**\r\n\t * @notice Get the names of all collections\r\n\t * @dev This function is for web3 calls only, as it returns a dynamic array\r\n\t * @return The names of all PixelCon collections in existence\r\n\t */\r\n\tfunction getAllCollectionNames() public view returns(bytes8[])\r\n\t{\r\n\t\treturn collectionNames;\r\n\t}\r\n\r\n\t/**\r\n\t * @notice Get the names of all collections from index `(_startIndex)` to `(_endIndex)`\r\n\t * @dev This function is for web3 calls only, as it returns a dynamic array\r\n\t * @return The names of the collections in the given range\r\n\t */\r\n\tfunction getCollectionNamesInRange(uint64 _startIndex, uint64 _endIndex) public view returns(bytes8[])\r\n\t{\r\n\t\trequire(_startIndex <= totalCollections(), \"Start index is out of bounds\");\r\n\t\trequire(_endIndex <= totalCollections(), \"End index is out of bounds\");\r\n\t\trequire(_startIndex <= _endIndex, \"End index is less than the start index\");\r\n\r\n\t\tuint64 length = _endIndex - _startIndex;\r\n\t\tbytes8[] memory names = new bytes8[](length);\r\n\t\tfor (uint i = 0; i < length; i++)\t{\r\n\t\t\tnames[i] = collectionNames[_startIndex + i];\r\n\t\t}\r\n\t\treturn names;\r\n\t}\r\n\r\n\r\n\t/////////////////////////////////////////////////////////////////////////////////////////////////////////////////////////////////////////////\r\n\t////////////////////////////////////////////////////// ERC-721 Implementation ///////////////////////////////////////////////////////////////\r\n\t/////////////////////////////////////////////////////////////////////////////////////////////////////////////////////////////////////////////\r\n\r\n\t/**\r\n\t * @notice Get the balance of `(_owner)`\r\n\t * @param _owner Owner address\r\n\t * @return Owner balance\r\n\t */\r\n\tfunction balanceOf(address _owner) public view validAddress(_owner) returns(uint256)\r\n\t{\r\n\t\treturn ownedTokens[_owner].length;\r\n\t}\r\n\r\n\t/**\r\n\t * @notice Get the owner of PixelCon `(_tokenId)`\r\n\t * @dev Throws if PixelCon does not exist\r\n\t * @param _tokenId ID of the token\r\n\t * @return Owner of the given PixelCon\r\n\t */\r\n\tfunction ownerOf(uint256 _tokenId) public view validId(_tokenId) returns(address)\r\n\t{\r\n\t\taddress owner = tokenLookup[_tokenId].owner;\r\n\t\trequire(owner != address(0), \"PixelCon does not exist\");\r\n\t\treturn owner;\r\n\t}\r\n\r\n\t/**\r\n\t * @notice Approve `(_to)` to transfer PixelCon `(_tokenId)` (zero indicates no approved address)\r\n\t * @dev Throws if not called by the owner or an approved operator\r\n\t * @param _to Address to be approved\r\n\t * @param _tokenId ID of the token to be approved\r\n\t */\r\n\tfunction approve(address _to, uint256 _tokenId) public validId(_tokenId)\r\n\t{\r\n\t\taddress owner = tokenLookup[_tokenId].owner;\r\n\t\trequire(_to != owner, \"Cannot approve PixelCon owner\");\r\n\t\trequire(msg.sender == owner || operatorApprovals[owner][msg.sender], \"Sender does not have permission to approve address\");\r\n\r\n\t\ttokenApprovals[_tokenId] = _to;\r\n\t\temit Approval(owner, _to, _tokenId);\r\n\t}\r\n\r\n\t/**\r\n\t * @notice Get the approved address for PixelCon `(_tokenId)`\r\n\t * @dev Throws if the PixelCon does not exist\r\n\t * @param _tokenId ID of the token\r\n\t * @return Address currently approved for the given PixelCon\r\n\t */\r\n\tfunction getApproved(uint256 _tokenId) public view validId(_tokenId) returns(address)\r\n\t{\r\n\t\taddress owner = tokenLookup[_tokenId].owner;\r\n\t\trequire(owner != address(0), \"PixelCon does not exist\");\r\n\t\treturn tokenApprovals[_tokenId];\r\n\t}\r\n\r\n\t/**\r\n\t * @notice Set or unset the approval of operator `(_to)`\r\n\t * @dev An operator is allowed to transfer all tokens of the sender on their behalf\r\n\t * @param _to Operator address to set the approval\r\n\t * @param _approved Flag for setting approval\r\n\t */\r\n\tfunction setApprovalForAll(address _to, bool _approved) public validAddress(_to)\r\n\t{\r\n\t\trequire(_to != msg.sender, \"Cannot approve self\");\r\n\t\toperatorApprovals[msg.sender][_to] = _approved;\r\n\t\temit ApprovalForAll(msg.sender, _to, _approved);\r\n\t}\r\n\r\n\t/**\r\n\t * @notice Get if `(_operator)` is an approved operator for owner `(_owner)`\r\n\t * @param _owner Owner address \r\n\t * @param _operator Operator address\r\n\t * @return True if the given operator is approved by the given owner\r\n\t */\r\n\tfunction isApprovedForAll(address _owner, address _operator) public view validAddress(_owner) validAddress(_operator) returns(bool)\r\n\t{\r\n\t\treturn operatorApprovals[_owner][_operator];\r\n\t}\r\n\r\n\t/**\r\n\t * @notice Transfer the ownership of PixelCon `(_tokenId)` to `(_to)` (try to use 'safeTransferFrom' instead)\r\n\t * @dev Throws if the sender is not the owner, approved, or operator\r\n\t * @param _from Current owner\r\n\t * @param _to Address to receive the PixelCon\r\n\t * @param _tokenId ID of the PixelCon to be transferred\r\n\t */\r\n\tfunction transferFrom(address _from, address _to, uint256 _tokenId) public validAddress(_from) validAddress(_to) validId(_tokenId)\r\n\t{\r\n\t\trequire(isApprovedOrOwner(msg.sender, _tokenId), \"Sender does not have permission to transfer PixelCon\");\r\n\t\tclearApproval(_from, _tokenId);\r\n\t\tremoveTokenFrom(_from, _tokenId);\r\n\t\taddTokenTo(_to, _tokenId);\r\n\r\n\t\temit Transfer(_from, _to, _tokenId);\r\n\t}\r\n\r\n\t/**\r\n\t * @notice Safely transfer the ownership of PixelCon `(_tokenId)` to `(_to)`\r\n\t * @dev Throws if receiver is a contract that does not respond or the sender is not the owner, approved, or operator\r\n\t * @param _from Current owner\r\n\t * @param _to Address to receive the PixelCon\r\n\t * @param _tokenId ID of the PixelCon to be transferred\r\n\t */\r\n\tfunction safeTransferFrom(address _from, address _to, uint256 _tokenId) public\r\n\t{\r\n\t\t//requirements are checked in 'transferFrom' function\r\n\t\tsafeTransferFrom(_from, _to, _tokenId, \"\");\r\n\t}\r\n\r\n\t/**\r\n\t * @notice Safely transfer the ownership of PixelCon `(_tokenId)` to `(_to)`\r\n\t * @dev Throws if receiver is a contract that does not respond or the sender is not the owner, approved, or operator\r\n\t * @param _from Current owner\r\n\t * @param _to Address to receive the PixelCon\r\n\t * @param _tokenId ID of the PixelCon to be transferred\r\n\t * @param _data Data to send along with a safe transfer check\r\n\t */\r\n\tfunction safeTransferFrom(address _from, address _to, uint256 _tokenId, bytes _data) public\r\n\t{\r\n\t\t//requirements are checked in 'transferFrom' function\r\n\t\ttransferFrom(_from, _to, _tokenId);\r\n\t\trequire(checkAndCallSafeTransfer(_from, _to, _tokenId, _data), \"Transfer was not safe\");\r\n\t}\r\n\r\n\r\n\t/////////////////////////////////////////////////////////////////////////////////////////////////////////////////////////////////////////////\r\n\t//////////////////////////////////////////////// ERC-721 Enumeration Implementation /////////////////////////////////////////////////////////\r\n\t/////////////////////////////////////////////////////////////////////////////////////////////////////////////////////////////////////////////\r\n\r\n\t/**\r\n\t * @notice Get the total number of PixelCons in existence\r\n\t * @return Total number of PixelCons in existence\r\n\t */\r\n\tfunction totalSupply() public view returns(uint256)\r\n\t{\r\n\t\treturn pixelcons.length;\r\n\t}\r\n\r\n\t/**\r\n\t * @notice Get the ID of PixelCon #`(_tokenIndex)`\r\n\t * @dev Throws if index is out of bounds\r\n\t * @param _tokenIndex Counter less than `totalSupply()`\r\n\t * @return `_tokenIndex`th PixelCon ID\r\n\t */\r\n\tfunction tokenByIndex(uint256 _tokenIndex) public view returns(uint256)\r\n\t{\r\n\t\trequire(_tokenIndex < totalSupply(), \"PixelCon index is out of bounds\");\r\n\t\treturn pixelcons[_tokenIndex].tokenId;\r\n\t}\r\n\r\n\t/**\r\n\t * @notice Enumerate PixelCon assigned to owner `(_owner)`\r\n\t * @dev Throws if the index is out of bounds\r\n\t * @param _owner Owner address\r\n\t * @param _index Counter less than `balanceOf(_owner)`\r\n\t * @return PixelCon ID for the `(_index)`th PixelCon in owned by `(_owner)`\r\n\t */\r\n\tfunction tokenOfOwnerByIndex(address _owner, uint256 _index) public view validAddress(_owner) returns(uint256)\r\n\t{\r\n\t\trequire(_index < ownedTokens[_owner].length, \"Index is out of bounds\");\r\n\t\tPixelCon storage pixelcon = pixelcons[ownedTokens[_owner][_index]];\r\n\t\treturn pixelcon.tokenId;\r\n\t}\r\n\r\n\r\n\t/////////////////////////////////////////////////////////////////////////////////////////////////////////////////////////////////////////////\r\n\t////////////////////////////////////////////////// ERC-721 Metadata Implementation //////////////////////////////////////////////////////////\r\n\t/////////////////////////////////////////////////////////////////////////////////////////////////////////////////////////////////////////////\r\n\r\n\t/**\r\n\t * @notice Get the name of this contract token\r\n\t * @return Contract token name\r\n\t */\r\n\tfunction name() public view returns(string)\r\n\t{\r\n\t\treturn \"PixelCons\";\r\n\t}\r\n\r\n\t/**\r\n\t * @notice Get the symbol for this contract token\r\n\t * @return Contract token symbol\r\n\t */\r\n\tfunction symbol() public view returns(string)\r\n\t{\r\n\t\treturn \"PXCN\";\r\n\t}\r\n\r\n\t/**\r\n\t * @notice Get a distinct Uniform Resource Identifier (URI) for PixelCon `(_tokenId)`\r\n\t * @dev Throws if the given PixelCon does not exist\r\n\t * @return PixelCon URI\r\n\t */\r\n\tfunction tokenURI(uint256 _tokenId) public view returns(string)\r\n\t{\r\n\t\tTokenLookup storage lookupData = tokenLookup[_tokenId];\r\n\t\trequire(lookupData.owner != address(0), \"PixelCon does not exist\");\r\n\t\tPixelCon storage pixelcon = pixelcons[lookupData.tokenIndex];\r\n\t\tbytes8 pixelconName = pixelconNames[lookupData.tokenIndex];\r\n\r\n\t\t//Available values: <tokenId>, <tokenIndex>, <name>, <owner>, <creator>, <dateCreated>, <collectionIndex>\r\n\r\n\t\t//start with the token URI template and replace in the appropriate values\r\n\t\tstring memory finalTokenURI = tokenURITemplate;\r\n\t\tfinalTokenURI = StringUtils.replace(finalTokenURI, \"<tokenId>\", StringUtils.toHexString(_tokenId, 32));\r\n\t\tfinalTokenURI = StringUtils.replace(finalTokenURI, \"<tokenIndex>\", StringUtils.toHexString(uint256(lookupData.tokenIndex), 8));\r\n\t\tfinalTokenURI = StringUtils.replace(finalTokenURI, \"<name>\", StringUtils.toHexString(uint256(pixelconName), 8));\r\n\t\tfinalTokenURI = StringUtils.replace(finalTokenURI, \"<owner>\", StringUtils.toHexString(uint256(lookupData.owner), 20));\r\n\t\tfinalTokenURI = StringUtils.replace(finalTokenURI, \"<creator>\", StringUtils.toHexString(uint256(pixelcon.creator), 20));\r\n\t\tfinalTokenURI = StringUtils.replace(finalTokenURI, \"<dateCreated>\", StringUtils.toHexString(uint256(pixelcon.dateCreated), 8));\r\n\t\tfinalTokenURI = StringUtils.replace(finalTokenURI, \"<collectionIndex>\", StringUtils.toHexString(uint256(pixelcon.collectionIndex), 8));\r\n\r\n\t\treturn finalTokenURI;\r\n\t}\r\n\r\n\r\n\t/////////////////////////////////////////////////////////////////////////////////////////////////////////////////////////////////////////////\r\n\t////////////////////////////////////////////////////////////// Utils ////////////////////////////////////////////////////////////////////////\r\n\t/////////////////////////////////////////////////////////////////////////////////////////////////////////////////////////////////////////////\r\n\r\n\t/**\r\n\t * @notice Check whether the given editor is the current owner and original creator of a given token ID\r\n\t * @param _address Address to check for\r\n\t * @param _tokenId ID of the token to be edited\r\n\t * @return True if the editor is approved for the given token ID, is an operator of the owner, or is the owner of the token\r\n\t */\r\n\tfunction isCreatorAndOwner(address _address, uint256 _tokenId) internal view returns(bool)\r\n\t{\r\n\t\tTokenLookup storage lookupData = tokenLookup[_tokenId];\r\n\t\taddress owner = lookupData.owner;\r\n\t\taddress creator = pixelcons[lookupData.tokenIndex].creator;\r\n\r\n\t\treturn (_address == owner && _address == creator);\r\n\t}\r\n\r\n\t/**\r\n\t * @notice Check whether the given spender can transfer a given token ID\r\n\t * @dev Throws if the PixelCon does not exist\r\n\t * @param _address Address of the spender to query\r\n\t * @param _tokenId ID of the token to be transferred\r\n\t * @return True if the spender is approved for the given token ID, is an operator of the owner, or is the owner of the token\r\n\t */\r\n\tfunction isApprovedOrOwner(address _address, uint256 _tokenId) internal view returns(bool)\r\n\t{\r\n\t\taddress owner = tokenLookup[_tokenId].owner;\r\n\t\trequire(owner != address(0), \"PixelCon does not exist\");\r\n\t\treturn (_address == owner || tokenApprovals[_tokenId] == _address || operatorApprovals[owner][_address]);\r\n\t}\r\n\r\n\t/**\r\n\t * @notice Clear current approval of a given token ID\r\n\t * @dev Throws if the given address is not indeed the owner of the token\r\n\t * @param _owner Owner of the token\r\n\t * @param _tokenId ID of the token to be transferred\r\n\t */\r\n\tfunction clearApproval(address _owner, uint256 _tokenId) internal\r\n\t{\r\n\t\trequire(tokenLookup[_tokenId].owner == _owner, \"Incorrect PixelCon owner\");\r\n\t\tif (tokenApprovals[_tokenId] != address(0)) {\r\n\t\t\ttokenApprovals[_tokenId] = address(0);\r\n\t\t}\r\n\t}\r\n\r\n\t/**\r\n\t * @notice Add a token ID to the list of a given address\r\n\t * @dev Throws if the receiver address has hit ownership limit or the PixelCon already has an owner\r\n\t * @param _to Address representing the new owner of the given token ID\r\n\t * @param _tokenId ID of the token to be added to the tokens list of the given address\r\n\t */\r\n\tfunction addTokenTo(address _to, uint256 _tokenId) internal\r\n\t{\r\n\t\tuint64[] storage ownedList = ownedTokens[_to];\r\n\t\tTokenLookup storage lookupData = tokenLookup[_tokenId];\r\n\t\trequire(ownedList.length < uint256(2 ** 32) - 1, \"Max number of PixelCons per owner has been reached\");\r\n\t\trequire(lookupData.owner == address(0), \"PixelCon already has an owner\");\r\n\t\tlookupData.owner = _to;\r\n\r\n\t\t//update ownedTokens references\r\n\t\tuint ownedListIndex = ownedList.length;\r\n\t\townedList.length++;\r\n\t\tlookupData.ownedIndex = uint32(ownedListIndex);\r\n\t\townedList[ownedListIndex] = lookupData.tokenIndex;\r\n\t}\r\n\r\n\t/**\r\n\t * @notice Remove a token ID from the list of a given address\r\n\t * @dev Throws if the given address is not indeed the owner of the token\r\n\t * @param _from Address representing the previous owner of the given token ID\r\n\t * @param _tokenId ID of the token to be removed from the tokens list of the given address\r\n\t */\r\n\tfunction removeTokenFrom(address _from, uint256 _tokenId) internal\r\n\t{\r\n\t\tuint64[] storage ownedList = ownedTokens[_from];\r\n\t\tTokenLookup storage lookupData = tokenLookup[_tokenId];\r\n\t\trequire(lookupData.owner == _from, \"From address is incorrect\");\r\n\t\tlookupData.owner = address(0);\r\n\r\n\t\t//update ownedTokens references\r\n\t\tuint64 replacementTokenIndex = ownedList[ownedList.length - 1];\r\n\t\tdelete ownedList[ownedList.length - 1];\r\n\t\townedList.length--;\r\n\t\tif (lookupData.ownedIndex < ownedList.length) {\r\n\t\t\t//we just removed the last token index in the array, but if this wasn't the one to remove, then swap it with the one to remove \r\n\t\t\townedList[lookupData.ownedIndex] = replacementTokenIndex;\r\n\t\t\ttokenLookup[pixelcons[replacementTokenIndex].tokenId].ownedIndex = lookupData.ownedIndex;\r\n\t\t}\r\n\t\tlookupData.ownedIndex = 0;\r\n\t}\r\n\r\n\t/**\r\n\t * @notice Invoke `onERC721Received` on a target address (not executed if the target address is not a contract)\r\n\t * @param _from Address representing the previous owner of the given token ID\r\n\t * @param _to Target address that will receive the tokens\r\n\t * @param _tokenId ID of the token to be transferred\r\n\t * @param _data Optional data to send along with the call\r\n\t * @return True if the call correctly returned the expected value\r\n\t */\r\n\tfunction checkAndCallSafeTransfer(address _from, address _to, uint256 _tokenId, bytes _data) internal returns(bool)\r\n\t{\r\n\t\tif (!_to.isContract()) return true;\r\n\r\n\t\tbytes4 retval = ERC721Receiver(_to).onERC721Received(msg.sender, _from, _tokenId, _data);\r\n\t\treturn (retval == ERC721_RECEIVED);\r\n\t}\r\n}\r\n",
  "sourcePath": "C:\\Users\\Stephen\\Documents\\_Projects\\PixelCons\\contracts\\PixelCons.sol",
  "compiler": {
    "name": "solc",
    "version": "0.4.24+commit.e67f0147.Emscripten.clang"
  },
  "schemaVersion": "2.0.1",
  "updatedAt": "2019-01-01T00:08:51.749Z"
}