{
  "contractName": "PixelConMarket",
  "abi": [
    {
      "constant": false,
      "inputs": [],
      "name": "close",
      "outputs": [],
      "payable": false,
      "stateMutability": "nonpayable",
      "type": "function"
    },
    {
      "constant": true,
      "inputs": [],
      "name": "owner",
      "outputs": [
        {
          "name": "",
          "type": "address"
        }
      ],
      "payable": false,
      "stateMutability": "view",
      "type": "function"
    },
    {
      "inputs": [
        {
          "name": "_admin",
          "type": "address"
        },
        {
          "name": "_pixelconContract",
          "type": "address"
        }
      ],
      "payable": false,
      "stateMutability": "nonpayable",
      "type": "constructor"
    },
    {
      "anonymous": false,
      "inputs": [
        {
          "indexed": true,
          "name": "_tokenIndex",
          "type": "uint64"
        },
        {
          "indexed": true,
          "name": "_seller",
          "type": "address"
        },
        {
          "indexed": false,
          "name": "_startPrice",
          "type": "uint256"
        },
        {
          "indexed": false,
          "name": "_endPrice",
          "type": "uint256"
        },
        {
          "indexed": false,
          "name": "_duration",
          "type": "uint64"
        }
      ],
      "name": "Create",
      "type": "event"
    },
    {
      "anonymous": false,
      "inputs": [
        {
          "indexed": true,
          "name": "_tokenIndex",
          "type": "uint64"
        },
        {
          "indexed": true,
          "name": "_buyer",
          "type": "address"
        },
        {
          "indexed": false,
          "name": "_price",
          "type": "uint256"
        }
      ],
      "name": "Purchase",
      "type": "event"
    },
    {
      "anonymous": false,
      "inputs": [
        {
          "indexed": true,
          "name": "_tokenIndex",
          "type": "uint64"
        },
        {
          "indexed": true,
          "name": "_operator",
          "type": "address"
        }
      ],
      "name": "Remove",
      "type": "event"
    },
    {
      "constant": false,
      "inputs": [
        {
          "name": "_newAdmin",
          "type": "address"
        }
      ],
      "name": "adminChange",
      "outputs": [],
      "payable": false,
      "stateMutability": "nonpayable",
      "type": "function"
    },
    {
      "constant": false,
      "inputs": [
        {
          "name": "_lock",
          "type": "bool"
        },
        {
          "name": "_allowPurchase",
          "type": "bool"
        }
      ],
      "name": "adminSetLock",
      "outputs": [],
      "payable": false,
      "stateMutability": "nonpayable",
      "type": "function"
    },
    {
      "constant": false,
      "inputs": [
        {
          "name": "_devFee",
          "type": "uint32"
        },
        {
          "name": "_priceUpdateInterval",
          "type": "uint32"
        },
        {
          "name": "_startDateRoundValue",
          "type": "uint32"
        },
        {
          "name": "_durationRoundValue",
          "type": "uint32"
        },
        {
          "name": "_maxDuration",
          "type": "uint64"
        },
        {
          "name": "_minDuration",
          "type": "uint64"
        },
        {
          "name": "_maxPrice",
          "type": "uint256"
        },
        {
          "name": "_minPrice",
          "type": "uint256"
        }
      ],
      "name": "adminSetDetails",
      "outputs": [],
      "payable": false,
      "stateMutability": "nonpayable",
      "type": "function"
    },
    {
      "constant": false,
      "inputs": [
        {
          "name": "_to",
          "type": "address"
        }
      ],
      "name": "adminWithdraw",
      "outputs": [],
      "payable": false,
      "stateMutability": "nonpayable",
      "type": "function"
    },
    {
      "constant": false,
      "inputs": [
        {
          "name": "_to",
          "type": "address"
        }
      ],
      "name": "adminClose",
      "outputs": [],
      "payable": false,
      "stateMutability": "nonpayable",
      "type": "function"
    },
    {
      "constant": true,
      "inputs": [],
      "name": "getMarketDetails",
      "outputs": [
        {
          "name": "",
          "type": "uint32"
        },
        {
          "name": "",
          "type": "uint32"
        },
        {
          "name": "",
          "type": "uint32"
        },
        {
          "name": "",
          "type": "uint32"
        },
        {
          "name": "",
          "type": "uint64"
        },
        {
          "name": "",
          "type": "uint64"
        },
        {
          "name": "",
          "type": "uint256"
        },
        {
          "name": "",
          "type": "uint256"
        }
      ],
      "payable": false,
      "stateMutability": "view",
      "type": "function"
    },
    {
      "constant": true,
      "inputs": [
        {
          "name": "_pixelconIndex",
          "type": "uint64"
        }
      ],
      "name": "exists",
      "outputs": [
        {
          "name": "",
          "type": "bool"
        }
      ],
      "payable": false,
      "stateMutability": "view",
      "type": "function"
    },
    {
      "constant": true,
      "inputs": [],
      "name": "totalListings",
      "outputs": [
        {
          "name": "",
          "type": "uint256"
        }
      ],
      "payable": false,
      "stateMutability": "view",
      "type": "function"
    },
    {
      "constant": true,
      "inputs": [
        {
          "name": "_pixelconIndex",
          "type": "uint64"
        }
      ],
      "name": "getListing",
      "outputs": [
        {
          "name": "_seller",
          "type": "address"
        },
        {
          "name": "_startPrice",
          "type": "uint256"
        },
        {
          "name": "_endPrice",
          "type": "uint256"
        },
        {
          "name": "_currPrice",
          "type": "uint256"
        },
        {
          "name": "_startDate",
          "type": "uint64"
        },
        {
          "name": "_duration",
          "type": "uint64"
        },
        {
          "name": "_timeLeft",
          "type": "uint64"
        }
      ],
      "payable": false,
      "stateMutability": "view",
      "type": "function"
    },
    {
      "constant": false,
      "inputs": [
        {
          "name": "_pixelconIndex",
          "type": "uint64"
        }
      ],
      "name": "removeListing",
      "outputs": [],
      "payable": false,
      "stateMutability": "nonpayable",
      "type": "function"
    },
    {
      "constant": false,
      "inputs": [
        {
          "name": "_to",
          "type": "address"
        },
        {
          "name": "_pixelconIndex",
          "type": "uint64"
        }
      ],
      "name": "purchase",
      "outputs": [],
      "payable": true,
      "stateMutability": "payable",
      "type": "function"
    },
    {
      "constant": true,
      "inputs": [
        {
          "name": "_indexes",
          "type": "uint64[]"
        }
      ],
      "name": "getBasicData",
      "outputs": [
        {
          "name": "",
          "type": "uint64[]"
        },
        {
          "name": "",
          "type": "address[]"
        },
        {
          "name": "",
          "type": "uint256[]"
        },
        {
          "name": "",
          "type": "uint64[]"
        }
      ],
      "payable": false,
      "stateMutability": "view",
      "type": "function"
    },
    {
      "constant": true,
      "inputs": [
        {
          "name": "_seller",
          "type": "address"
        }
      ],
      "name": "getForSeller",
      "outputs": [
        {
          "name": "",
          "type": "uint64[]"
        }
      ],
      "payable": false,
      "stateMutability": "view",
      "type": "function"
    },
    {
      "constant": true,
      "inputs": [],
      "name": "getAllListings",
      "outputs": [
        {
          "name": "",
          "type": "uint64[]"
        }
      ],
      "payable": false,
      "stateMutability": "view",
      "type": "function"
    },
    {
      "constant": true,
      "inputs": [
        {
          "name": "_startIndex",
          "type": "uint64"
        },
        {
          "name": "_endIndex",
          "type": "uint64"
        }
      ],
      "name": "getListingsInRange",
      "outputs": [
        {
          "name": "",
          "type": "uint64[]"
        }
      ],
      "payable": false,
      "stateMutability": "view",
      "type": "function"
    },
    {
      "constant": false,
      "inputs": [
        {
          "name": "_operator",
          "type": "address"
        },
        {
          "name": "_from",
          "type": "address"
        },
        {
          "name": "_tokenId",
          "type": "uint256"
        },
        {
          "name": "_data",
          "type": "bytes"
        }
      ],
      "name": "onERC721Received",
      "outputs": [
        {
          "name": "",
          "type": "bytes4"
        }
      ],
      "payable": false,
      "stateMutability": "nonpayable",
      "type": "function"
    }
  ],
  "bytecode": "0x608060405234801561001057600080fd5b50604051604080612fab83398101604052805160209091015160008054600160a060020a03191633179055600160a060020a03821615156100b257604080517f08c379a000000000000000000000000000000000000000000000000000000000815260206004820152600f60248201527f496e76616c696420616464726573730000000000000000000000000000000000604482015290519081900360640190fd5b600160a060020a038116151561012957604080517f08c379a000000000000000000000000000000000000000000000000000000000815260206004820152600f60248201527f496e76616c696420616464726573730000000000000000000000000000000000604482015290519081900360640190fd5b6005805460048054600160a060020a0319908116600160a060020a039586161790915516929091169190911760a060020a60ff021916740200000000000000000000000000000000000000001790556000805460a060020a63ffffffff0219167503e800000000000000000000000000000000000000001760c060020a63ffffffff021916790e1000000000000000000000000000000000000000000000000017600160e060020a03167d012c000000000000000000000000000000000000000000000000000000001781556001805461012c63ffffffff19909116176bffffffffffffffff00000000191666278d000000000017606060020a60a060020a0319166e01518000000000000000000000000017905568056bc75e2d6310000060025566038d7ea4c68000600355612d4590819061026690396000f3006080604052600436106100e25763ffffffff60e060020a6000350416630cbbf1a081146100e7578063150b7a021461010a57806341496296146101ae57806343d726d6146101e457806353924ca8146101f957806382fa7bb4146102715780638da5cb5b1461029057806390065d5f146102c15780639158133d146103305780639e5f4dbd14610379578063a0eb28461461039a578063a28835b6146103bb578063a54c2a9a146103dc578063ae73ccec146103fe578063c78b616c14610413578063dd1fef2a1461043a578063e2b319031461045b578063eaaff394146105d3575b600080fd5b3480156100f357600080fd5b50610108600160a060020a0360043516610647565b005b34801561011657600080fd5b50604080516020601f60643560048181013592830184900484028501840190955281845261017994600160a060020a0381358116956024803590921695604435953695608494019181908401838280828437509497506107819650505050505050565b604080517fffffffff000000000000000000000000000000000000000000000000000000009092168252519081900360200190f35b3480156101ba57600080fd5b506101d067ffffffffffffffff60043516610a30565b604080519115158252519081900360200190f35b3480156101f057600080fd5b50610108610a5a565b34801561020557600080fd5b5061022167ffffffffffffffff60043581169060243516610af0565b60408051602080825283518183015283519192839290830191858101910280838360005b8381101561025d578181015183820152602001610245565b505050509050019250505060405180910390f35b34801561027d57600080fd5b5061010860043515156024351515610d23565b34801561029c57600080fd5b506102a5610e17565b60408051600160a060020a039092168252519081900360200190f35b3480156102cd57600080fd5b506102d6610e26565b6040805163ffffffff998a16815297891660208901529588168787015293909616606086015267ffffffffffffffff91821660808601521660a084015260c083019390935260e08201929092529051908190036101000190f35b34801561033c57600080fd5b5061010863ffffffff6004358116906024358116906044358116906064351667ffffffffffffffff60843581169060a4351660c43560e435610e84565b34801561038557600080fd5b50610108600160a060020a0360043516610fe5565b610108600160a060020a036004351667ffffffffffffffff602435166110c5565b3480156103c757600080fd5b50610108600160a060020a0360043516611561565b3480156103e857600080fd5b5061010867ffffffffffffffff6004351661164c565b34801561040a57600080fd5b506102216118cd565b34801561041f57600080fd5b5061042861195a565b60408051918252519081900360200190f35b34801561044657600080fd5b50610221600160a060020a0360043516611960565b34801561046757600080fd5b50604080516020600480358082013583810280860185019096528085526104b095369593946024949385019291829185019084908082843750949750611a509650505050505050565b6040518080602001806020018060200180602001858103855289818151815260200191508051906020019060200280838360005b838110156104fc5781810151838201526020016104e4565b50505050905001858103845288818151815260200191508051906020019060200280838360005b8381101561053b578181015183820152602001610523565b50505050905001858103835287818151815260200191508051906020019060200280838360005b8381101561057a578181015183820152602001610562565b50505050905001858103825286818151815260200191508051906020019060200280838360005b838110156105b95781810151838201526020016105a1565b505050509050019850505050505050505060405180910390f35b3480156105df57600080fd5b506105f567ffffffffffffffff60043516611d51565b60408051600160a060020a039098168852602088019690965286860194909452606086019290925267ffffffffffffffff908116608086015290811660a08501521660c0830152519081900360e00190f35b600554600160a060020a031633146106a8576040805160e560020a62461bcd0281526020600482015260256024820152600080516020612cfa833981519152604482015260d960020a6431ba34b7b702606482015290519081900360840190fd5b80600160a060020a03811615156106f7576040805160e560020a62461bcd02815260206004820152600f6024820152600080516020612cda833981519152604482015290519081900360640190fd5b60085415610775576040805160e560020a62461bcd02815260206004820152602160248201527f43616e6e6f7420636c6f7365207769746820616374697665206c697374696e6760448201527f7300000000000000000000000000000000000000000000000000000000000000606482015290519081900360840190fd5b81600160a060020a0316ff5b60055460009081908190819060a060020a900460ff16156107ec576040805160e560020a62461bcd02815260206004820152601a60248201527f4d61726b65742069732063757272656e746c79206c6f636b6564000000000000604482015290519081900360640190fd5b600454600160a060020a03163314610874576040805160e560020a62461bcd02815260206004820152603960248201527f4d61726b6574206f6e6c792061636365707473207472616e736665727320667260448201527f6f6d2074686520506978656c436f6e7320636f6e747261637400000000000000606482015290519081900360840190fd5b8515156108cb576040805160e560020a62461bcd02815260206004820152601060248201527f496e76616c696420746f6b656e20494400000000000000000000000000000000604482015290519081900360640190fd5b600160a060020a038816151561092b576040805160e560020a62461bcd02815260206004820152601860248201527f496e76616c6964206f70657261746f7220616464726573730000000000000000604482015290519081900360640190fd5b600160a060020a038716151561098b576040805160e560020a62461bcd02815260206004820152601460248201527f496e76616c69642066726f6d2061646472657373000000000000000000000000604482015290519081900360640190fd5b84516060146109e4576040805160e560020a62461bcd02815260206004820152601a60248201527f496e636f72726563746c7920666f726d61747465642064617461000000000000604482015290519081900360640190fd5b505050602082015160408301516060840151610a038787858585611e8b565b507f150b7a0200000000000000000000000000000000000000000000000000000000979650505050505050565b67ffffffffffffffff16600090815260076020526040902060010154600160a060020a0316151590565b600054600160a060020a03163314610ae2576040805160e560020a62461bcd02815260206004820152602260248201527f4f6e6c79206f776e65722063616e2063616c6c20746869732066756e6374696f60448201527f6e2e000000000000000000000000000000000000000000000000000000000000606482015290519081900360840190fd5b600054600160a060020a0316ff5b6060600060606000610b0061195a565b67ffffffffffffffff87161115610b61576040805160e560020a62461bcd02815260206004820152601c60248201527f537461727420696e646578206973206f7574206f6620626f756e647300000000604482015290519081900360640190fd5b610b6961195a565b67ffffffffffffffff86161115610bca576040805160e560020a62461bcd02815260206004820152601a60248201527f456e6420696e646578206973206f7574206f6620626f756e6473000000000000604482015290519081900360640190fd5b67ffffffffffffffff8086169087161115610c55576040805160e560020a62461bcd02815260206004820152602660248201527f456e6420696e646578206973206c657373207468616e2074686520737461727460448201527f20696e6465780000000000000000000000000000000000000000000000000000606482015290519081900360840190fd5b85850392508267ffffffffffffffff16604051908082528060200260200182016040528015610c8e578160200160208202803883390190505b509150600090505b8267ffffffffffffffff16811015610d1a576008805467ffffffffffffffff88168301908110610cc257fe5b90600052602060002090600491828204019190066008029054906101000a900467ffffffffffffffff168282815181101515610cfa57fe5b67ffffffffffffffff909216602092830290910190910152600101610c96565b50949350505050565b600554600160a060020a03163314610d84576040805160e560020a62461bcd0281526020600482015260256024820152600080516020612cfa833981519152604482015260d960020a6431ba34b7b702606482015290519081900360840190fd5b8115610df4578015610db9576005805474ff0000000000000000000000000000000000000000191660a060020a179055610def565b6005805474ff00000000000000000000000000000000000000001916740200000000000000000000000000000000000000001790555b610e13565b6005805474ff0000000000000000000000000000000000000000191690555b5050565b600054600160a060020a031681565b60005460015460025460035463ffffffff60a060020a850481169560c060020a860482169560e060020a90048216949182169367ffffffffffffffff64010000000084048116946c0100000000000000000000000090940416929091565b600554600160a060020a03163314610ee5576040805160e560020a62461bcd0281526020600482015260256024820152600080516020612cfa833981519152604482015260d960020a6431ba34b7b702606482015290519081900360840190fd5b6000805477ffffffff0000000000000000000000000000000000000000191660a060020a63ffffffff9a8b1602177fffffffff00000000ffffffffffffffffffffffffffffffffffffffffffffffff1660c060020a988a1698909802979097177bffffffffffffffffffffffffffffffffffffffffffffffffffffffff1660e060020a96891696909602959095179095556001805463ffffffff191693909616929092176bffffffffffffffff00000000191664010000000067ffffffffffffffff928316021773ffffffffffffffff00000000000000000000000019166c01000000000000000000000000929091169190910217909255600255600355565b600554600160a060020a03163314611046576040805160e560020a62461bcd0281526020600482015260256024820152600080516020612cfa833981519152604482015260d960020a6431ba34b7b702606482015290519081900360840190fd5b80600160a060020a0381161515611095576040805160e560020a62461bcd02815260206004820152600f6024820152600080516020612cda833981519152604482015290519081900360640190fd5b506005805473ffffffffffffffffffffffffffffffffffffffff1916600160a060020a0392909216919091179055565b600080808085600160a060020a0381161515611119576040805160e560020a62461bcd02815260206004820152600f6024820152600080516020612cda833981519152604482015290519081900360640190fd5b67ffffffffffffffff8616600090815260076020526040902060055490955060a060020a900460ff166002141561119a576040805160e560020a62461bcd02815260206004820152601a60248201527f4d61726b65742069732063757272656e746c79206c6f636b6564000000000000604482015290519081900360640190fd5b6001850154600160a060020a031615156111fe576040805160e560020a62461bcd02815260206004820152601d60248201527f4d61726b6574206c697374696e6720646f6573206e6f74206578697374000000604482015290519081900360640190fd5b6001850154600160a060020a0316331415611289576040805160e560020a62461bcd02815260206004820152602860248201527f53656c6c65722063616e6e6f74207075726368617365207468656972206f776e60448201527f206c697374696e67000000000000000000000000000000000000000000000000606482015290519081900360840190fd5b84546112cf9067ffffffffffffffff80821691680100000000000000008104821691700100000000000000000000000000000000820481169160c060020a9004166128cd565b9350831515611328576040805160e560020a62461bcd02815260206004820152601a60248201527f4d61726b6574206c697374696e67206861732065787069726564000000000000604482015290519081900360640190fd5b600054620186a09060a060020a900463ffffffff168502048401341015611399576040805160e560020a62461bcd02815260206004820152601760248201527f496e73756666696369656e742076616c75652073656e74000000000000000000604482015290519081900360640190fd5b60048054604080517f4f6ccce700000000000000000000000000000000000000000000000000000000815267ffffffffffffffff8a169381019390935251600160a060020a0390911691634f6ccce79160248083019260209291908290030181600087803b15801561140a57600080fd5b505af115801561141e573d6000803e3d6000fd5b505050506040513d602081101561143457600080fd5b50516001860154909350600160a060020a031691506114538287612946565b60048054604080517f23b872dd0000000000000000000000000000000000000000000000000000000081523093810193909352600160a060020a038a811660248501526044840187905290519116916323b872dd91606480830192600092919082900301818387803b1580156114c857600080fd5b505af11580156114dc573d6000803e3d6000fd5b5050604051600160a060020a038516925086156108fc02915086906000818181858888f19350505050158015611516573d6000803e3d6000fd5b50604080518581529051339167ffffffffffffffff8916917f91902ed78ec7f285a3cf10869fc74ffbd4d630c42d623b041e81e300ecf64e2a9181900360200190a350505050505050565b600554600160a060020a031633146115c2576040805160e560020a62461bcd0281526020600482015260256024820152600080516020612cfa833981519152604482015260d960020a6431ba34b7b702606482015290519081900360840190fd5b80600160a060020a0381161515611611576040805160e560020a62461bcd02815260206004820152600f6024820152600080516020612cda833981519152604482015290519081900360640190fd5b604051600160a060020a03831690303180156108fc02916000818181858888f19350505050158015611647573d6000803e3d6000fd5b505050565b67ffffffffffffffff8116600090815260076020526040812060018101549091908190600160a060020a031615156116ce576040805160e560020a62461bcd02815260206004820152601d60248201527f4d61726b6574206c697374696e6720646f6573206e6f74206578697374000000604482015290519081900360640190fd5b6001830154600160a060020a03163314806116f35750600554600160a060020a031633145b1515611749576040805160e560020a62461bcd02815260206004820152601860248201527f496e73756666696369656e74207065726d697373696f6e730000000000000000604482015290519081900360640190fd5b60048054604080517f4f6ccce700000000000000000000000000000000000000000000000000000000815267ffffffffffffffff88169381019390935251600160a060020a0390911691634f6ccce79160248083019260209291908290030181600087803b1580156117ba57600080fd5b505af11580156117ce573d6000803e3d6000fd5b505050506040513d60208110156117e457600080fd5b50516001840154909250600160a060020a031690506118038185612946565b60048054604080517f23b872dd0000000000000000000000000000000000000000000000000000000081523093810193909352600160a060020a0384811660248501526044840186905290519116916323b872dd91606480830192600092919082900301818387803b15801561187857600080fd5b505af115801561188c573d6000803e3d6000fd5b505060405133925067ffffffffffffffff871691507f362b26b15eb50d806705df7b404858af55f28e474518447886f0773434b1a9ac90600090a350505050565b6060600880548060200260200160405190810160405280929190818152602001828054801561194f57602002820191906000526020600020906000905b82829054906101000a900467ffffffffffffffff1667ffffffffffffffff168152602001906008019060208260070104928301926001038202915080841161190a5790505b505050505090505b90565b60085490565b606081600160a060020a03811615156119b1576040805160e560020a62461bcd02815260206004820152600f6024820152600080516020612cda833981519152604482015290519081900360640190fd5b600160a060020a03831660009081526006602090815260409182902080548351818402810184019094528084529091830182828015611a4357602002820191906000526020600020906000905b82829054906101000a900467ffffffffffffffff1667ffffffffffffffff16815260200190600801906020826007010492830192600103820291508084116119fe5790505b5050505050915050919050565b6060806060806060806060806000808a51604051908082528060200260200182016040528015611a8a578160200160208202803883390190505b5095508a51604051908082528060200260200182016040528015611ab8578160200160208202803883390190505b5094508a51604051908082528060200260200182016040528015611ae6578160200160208202803883390190505b5093508a51604051908082528060200260200182016040528015611b14578160200160208202803883390190505b509250600091505b8a51821015611d4057600760008c84815181101515611b3757fe5b602090810290910181015167ffffffffffffffff1682528101919091526040016000206001810154909150600160a060020a031615611ca0578a82815181101515611b7e57fe5b906020019060200201518683815181101515611b9657fe5b67ffffffffffffffff90921660209283029091019091015260018101548551600160a060020a0390911690869084908110611bcd57fe5b600160a060020a039092166020928302909101909101528054611c2a9067ffffffffffffffff80821691680100000000000000008104821691700100000000000000000000000000000000820481169160c060020a9004166128cd565b8483815181101515611c3857fe5b602090810290910101528054611c759067ffffffffffffffff700100000000000000000000000000000000820481169160c060020a900416612c6d565b8383815181101515611c8357fe5b67ffffffffffffffff909216602092830290910190910152611d35565b60008683815181101515611cb057fe5b67ffffffffffffffff9092166020928302909101909101528451600090869084908110611cd957fe5b600160a060020a039092166020928302909101909101528351600090859084908110611d0157fe5b602090810290910101528251600090849084908110611d1c57fe5b67ffffffffffffffff9092166020928302909101909101525b600190910190611b1c565b509399929850909650945092505050565b67ffffffffffffffff811660009081526007602052604081206001810154829182918291829182918291600160a060020a03161515611dda576040805160e560020a62461bcd02815260206004820152601d60248201527f4d61726b6574206c697374696e6720646f6573206e6f74206578697374000000604482015290519081900360640190fd5b60018101548154600160a060020a039091169850633b9aca0067ffffffffffffffff8083168281029a5068010000000000000000840482169283029950611e4293909291700100000000000000000000000000000000820481169160c060020a9004166128cd565b815490955067ffffffffffffffff70010000000000000000000000000000000082048116955060c060020a909104169250611e7d8484612c6d565b915050919395979092949650565b6000806000806000806002548911151515611f16576040805160e560020a62461bcd02815260206004820152602a60248201527f537461727420707269636520697320686967686572207468616e20746865206d60448201527f617820616c6c6f77656400000000000000000000000000000000000000000000606482015290519081900360840190fd5b600354891015611f96576040805160e560020a62461bcd02815260206004820152602960248201527f5374617274207072696365206973206c6f776572207468616e20746865206d6960448201527f6e20616c6c6f7765640000000000000000000000000000000000000000000000606482015290519081900360840190fd5b600254881115612016576040805160e560020a62461bcd02815260206004820152602860248201527f456e6420707269636520697320686967686572207468616e20746865206d617860448201527f20616c6c6f776564000000000000000000000000000000000000000000000000606482015290519081900360840190fd5b600354881015612096576040805160e560020a62461bcd02815260206004820152602760248201527f456e64207072696365206973206c6f776572207468616e20746865206d696e2060448201527f616c6c6f77656400000000000000000000000000000000000000000000000000606482015290519081900360840190fd5b633b9aca0089049850633b9aca008804975060008811612100576040805160e560020a62461bcd02815260206004820152601f60248201527f456e642070726963652063616e6e6f74206265207a65726f2028677765692900604482015290519081900360640190fd5b8789101561217e576040805160e560020a62461bcd02815260206004820152602760248201527f5374617274207072696365206973206c6f776572207468616e2074686520656e60448201527f6420707269636500000000000000000000000000000000000000000000000000606482015290519081900360840190fd5b6801000000000000000089106121de576040805160e560020a62461bcd02815260206004820152601c60248201527f5374617274207072696365206973206f7574206f6620626f756e647300000000604482015290519081900360640190fd5b68010000000000000000881061223e576040805160e560020a62461bcd02815260206004820152601a60248201527f456e64207072696365206973206f7574206f6620626f756e6473000000000000604482015290519081900360640190fd5b60005460e060020a900463ffffffff16804281151561225957fe5b040295506801000000000000000086106122bd576040805160e560020a62461bcd02815260206004820152601b60248201527f53746172742064617465206973206f7574206f6620626f756e64730000000000604482015290519081900360640190fd5b60015463ffffffff1680888115156122d157fe5b040296506000871161232d576040805160e560020a62461bcd02815260206004820152601760248201527f4475726174696f6e2063616e6e6f74206265207a65726f000000000000000000604482015290519081900360640190fd5b600154640100000000900467ffffffffffffffff168711156123bf576040805160e560020a62461bcd02815260206004820152602760248201527f4475726174696f6e20697320686967686572207468616e20746865206d61782060448201527f616c6c6f77656400000000000000000000000000000000000000000000000000606482015290519081900360840190fd5b6001546c01000000000000000000000000900467ffffffffffffffff16871015612459576040805160e560020a62461bcd02815260206004820152602660248201527f4475726174696f6e206973206c6f776572207468616e20746865206d696e206160448201527f6c6c6f7765640000000000000000000000000000000000000000000000000000606482015290519081900360840190fd5b60048054604080517f3a663c800000000000000000000000000000000000000000000000000000000081529283018d905251600160a060020a0390911691633a663c809160248083019260209291908290030181600087803b1580156124be57600080fd5b505af11580156124d2573d6000803e3d6000fd5b505050506040513d60208110156124e857600080fd5b81019080805190602001909291905050509450600760008667ffffffffffffffff1667ffffffffffffffff1681526020019081526020016000209350888460000160006101000a81548167ffffffffffffffff021916908367ffffffffffffffff160217905550878460000160086101000a81548167ffffffffffffffff021916908367ffffffffffffffff160217905550858460000160106101000a81548167ffffffffffffffff021916908367ffffffffffffffff160217905550868460000160186101000a81548167ffffffffffffffff021916908367ffffffffffffffff1602179055508a8460010160006101000a815481600160a060020a030219169083600160a060020a03160217905550600660008c600160a060020a0316600160a060020a03168152602001908152602001600020925082805490509150600880549050905063ffffffff821015156126b2576040805160e560020a62461bcd02815260206004820152603a60248201527f4d6178206e756d626572206f66206d61726b6574206c697374696e677320686160448201527f73206265656e20657863656564656420666f722073656c6c6572000000000000606482015290519081900360840190fd5b67ffffffffffffffff8110612737576040805160e560020a62461bcd02815260206004820152602f60248201527f4d6178206e756d626572206f66206d61726b6574206c697374696e677320686160448201527f73206265656e2065786365656465640000000000000000000000000000000000606482015290519081900360840190fd5b6001848101805477ffffffff0000000000000000000000000000000000000000191660a060020a63ffffffff8616021777ffffffffffffffffffffffffffffffffffffffffffffffff1660c060020a67ffffffffffffffff8516021790558354906127a59085908301612c91565b508483838154811015156127b557fe5b90600052602060002090600491828204019190066008026101000a81548167ffffffffffffffff021916908367ffffffffffffffff160217905550600880548091906001016128049190612c91565b508460088281548110151561281557fe5b90600052602060002090600491828204019190066008026101000a81548167ffffffffffffffff021916908367ffffffffffffffff1602179055508a600160a060020a03168567ffffffffffffffff167f5b36d3eec4760c8a6d9cbef18cac04315af9c29cc8391aa255135761ec6148fe8b8b8b604051808481526020018381526020018267ffffffffffffffff1667ffffffffffffffff168152602001935050505060405180910390a35050505050505050505050565b60004283900381838211156128e5576000925061293c565b60005460c060020a900463ffffffff16828115156128ff57fe5b600054919004925060c060020a900463ffffffff168481151561291e57fe5b049050633b9aca008183888a030281151561293557fe5b0488030292505b5050949350505050565b67ffffffffffffffff81166000908152600760209081526040808320600160a060020a03861684526006909252822080549192909181908390600019810190811061298d57fe5b90600052602060002090600491828204019190066008029054906101000a900467ffffffffffffffff1691508260018480549050038154811015156129ce57fe5b90600052602060002090600491828204019190066008026101000a81549067ffffffffffffffff021916905582805480919060019003612a0e9190612c91565b508254600185015460a060020a900463ffffffff161015612ad157600184015483548391859160a060020a90910463ffffffff16908110612a4b57fe5b600091825260208083206004830401805460039093166008026101000a67ffffffffffffffff818102199094169584160294909417909355600187810154918616835260079093526040909120909101805477ffffffff0000000000000000000000000000000000000000191660a060020a9283900463ffffffff169092029190911790555b600880546000198101908110612ae357fe5b6000918252602090912060048204015460088054600390931681026101000a90910467ffffffffffffffff169250906000198101908110612b2057fe5b600091825260209091206004820401805467ffffffffffffffff6008600390941684026101000a0219169055805490612b5d906000198301612c91565b50600854600185015460c060020a900467ffffffffffffffff161015612c4757600184015460088054839260c060020a900467ffffffffffffffff16908110612ba257fe5b90600052602060002090600491828204019190066008026101000a81548167ffffffffffffffff021916908367ffffffffffffffff1602179055508360010160189054906101000a900467ffffffffffffffff16600760008367ffffffffffffffff1667ffffffffffffffff16815260200190815260200160002060010160186101000a81548167ffffffffffffffff021916908367ffffffffffffffff1602179055505b5050505067ffffffffffffffff1660009081526007602052604081208181556001015550565b60004283900382811115612c845760009150612c8a565b80830391505b5092915050565b81548183558181111561164757600083815260209020611647916119579160046003928301819004820192860104015b80821115612cd55760008155600101612cc1565b50905600496e76616c6964206164647265737300000000000000000000000000000000004f6e6c79207468652061646d696e2063616e2063616c6c20746869732066756ea165627a7a72305820d706cc9067529d36ca51b0dcb0e67d3241bd7614e1da58cc7c2f2c92941a6a780029",
  "source": "pragma solidity ^0.4.24;\n\nimport \"./ERC721Receiver.sol\";\nimport \"./PixelCons.sol\";\n\n\n/**\n * @title PixelCons Market\n * @notice This is the main market contract for buying and selling PixelCons. Listings are created by transferring PixelCons to this contract through\n * the PixelCons contract. Listings can be removed from the market at any time. An admin user has the ability to change market parameters such as min \n * and max acceptable values, as well as the ability to lock the market from any new listings and/or purchases. The admin cannot prevent users from\n * removing their listings at any time.\n * @author PixelCons\n */\ncontract PixelConMarket is ERC721Receiver, Ownable {\n\n\t/** @dev Different contract lock states */\n\tuint8 private constant LOCK_NONE = 0;\n\tuint8 private constant LOCK_NO_LISTING = 1;\n\tuint8 private constant LOCK_REMOVE_ONLY = 2;\n\n\t/** @dev Math constants */\n\tuint256 private constant WEI_PER_GWEI = 1000000000;\n\tuint256 private constant FEE_RATIO = 100000;\n\n\n\t/////////////////////////////////////////////////////////////////////////////////////////////////////////////////////////////////////////////\n\t///////////////////////////////////////////////////////////// Structs ///////////////////////////////////////////////////////////////////////\n\t/////////////////////////////////////////////////////////////////////////////////////////////////////////////////////////////////////////////\n\n\t/** @dev Market listing data */\n\tstruct Listing {\n\t\tuint64 startAmount; //gwei\n\t\tuint64 endAmount; //gwei\n\t\tuint64 startDate;\n\t\tuint64 duration;\n\t\t//// ^256bits ////\n\t\taddress seller;\n\t\tuint32 sellerIndex;\n\t\tuint64 forSaleIndex;\n\t}\n\n\n\t/////////////////////////////////////////////////////////////////////////////////////////////////////////////////////////////////////////////\n\t///////////////////////////////////////////////////////////// Storage ///////////////////////////////////////////////////////////////////////\n\t/////////////////////////////////////////////////////////////////////////////////////////////////////////////////////////////////////////////\n\n\t/** @dev Market modifiable parameters */\n\tuint32 internal devFee; //percent*100000\n\tuint32 internal priceUpdateInterval; //seconds\n\tuint32 internal startDateRoundValue; //seconds\n\tuint32 internal durationRoundValue; //seconds\n\tuint64 internal maxDuration; //seconds\n\tuint64 internal minDuration; //seconds\n\tuint256 internal maxPrice; //wei\n\tuint256 internal minPrice; //wei\n\n\t/** @dev Admin data */\n\tPixelCons internal pixelconsContract;\n\taddress internal admin;\n\tuint8 internal systemLock;\n\n\t////////////////// Listings //////////////////\n\n\t/** @dev Links a seller to the PixelCon indexes he/she has for sale */\n\tmapping(address => uint64[]) internal sellerPixelconIndexes;\n\n\t/** @dev Links a PixelCon index to market listing */\n\tmapping(uint64 => Listing) internal marketPixelconListings;\n\n\t/** @dev Keeps track of all PixelCons for sale by index */\n\tuint64[] internal forSalePixelconIndexes;\n\n\n\t/////////////////////////////////////////////////////////////////////////////////////////////////////////////////////////////////////////////\n\t///////////////////////////////////////////////////////////// Events ////////////////////////////////////////////////////////////////////////\n\t/////////////////////////////////////////////////////////////////////////////////////////////////////////////////////////////////////////////\n\n\t/** @dev Market listing events */\n\tevent Create(uint64 indexed _tokenIndex, address indexed _seller, uint256 _startPrice, uint256 _endPrice, uint64 _duration);\n\tevent Purchase(uint64 indexed _tokenIndex, address indexed _buyer, uint256 _price);\n\tevent Remove(uint64 indexed _tokenIndex, address indexed _operator);\n\n\n\t/////////////////////////////////////////////////////////////////////////////////////////////////////////////////////////////////////////////\n\t/////////////////////////////////////////////////////////// Modifiers ///////////////////////////////////////////////////////////////////////\n\t/////////////////////////////////////////////////////////////////////////////////////////////////////////////////////////////////////////////\n\n\t/**  @dev Requires sender be the designated admin */\n\tmodifier onlyAdmin {\n\t\trequire(msg.sender == admin, \"Only the admin can call this function\");\n\t\t_;\n\t}\n\n\t/** @dev Small validators for quick validation of function parameters */\n\tmodifier validAddress(address _address) {\n\t\trequire(_address != address(0), \"Invalid address\");\n\t\t_;\n\t}\n\n\n\t/////////////////////////////////////////////////////////////////////////////////////////////////////////////////////////////////////////////\n\t//////////////////////////////////////////////////////////// Market Admin ///////////////////////////////////////////////////////////////////\n\t/////////////////////////////////////////////////////////////////////////////////////////////////////////////////////////////////////////////\n\n\t/**\n\t * @notice Contract constructor\n\t * @param _admin Admin address\n\t * @param _pixelconContract PixelCon contract address\n\t */\n\tconstructor(address _admin, address _pixelconContract) public \n\t{\n\t\trequire(_admin != address(0), \"Invalid address\");\n\t\trequire(_pixelconContract != address(0), \"Invalid address\");\n\t\tadmin = _admin;\n\t\tpixelconsContract = PixelCons(_pixelconContract);\n\t\tsystemLock = LOCK_REMOVE_ONLY;\n\n\t\t//default values\n\t\tdevFee = 1000;\n\t\tpriceUpdateInterval = 1 * 60 * 60;\n\t\tstartDateRoundValue = 5 * 60;\n\t\tdurationRoundValue = 5 * 60;\n\t\tmaxDuration = 30 * 24 * 60 * 60;\n\t\tminDuration = 1 * 24 * 60 * 60;\n\t\tmaxPrice = 100000000000000000000;\n\t\tminPrice = 1000000000000000;\n\t}\n\n\t/**\n\t * @notice Change the market admin\n\t * @dev Only the market admin can access this function\n\t * @param _newAdmin The new admin address\n\t */\n\tfunction adminChange(address _newAdmin) public onlyAdmin validAddress(_newAdmin) \n\t{\n\t\tadmin = _newAdmin;\n\t}\n\n\t/**\n\t * @notice Set the lock state of the market\n\t * @dev Only the market admin can access this function\n\t * @param _lock Flag for locking the market\n\t * @param _allowPurchase Flag for allowing purchases while locked\n\t */\n\tfunction adminSetLock(bool _lock, bool _allowPurchase) public onlyAdmin \n\t{\n\t\tif (_lock) {\n\t\t\tif (_allowPurchase) systemLock = LOCK_NO_LISTING;\n\t\t\telse systemLock = LOCK_REMOVE_ONLY;\n\t\t} else {\n\t\t\tsystemLock = LOCK_NONE;\n\t\t}\n\t}\n\n\t/**\n\t * @notice Set the market parameters\n\t * @dev Only the market admin can access this function\n\t * @param _devFee Developer fee required to purchase market listing (percent*100000)\n\t * @param _priceUpdateInterval Amount of time before prices update (seconds)\n\t * @param _startDateRoundValue Value to round market listing start dates to (seconds)\n\t * @param _durationRoundValue Value to round market listing durations to (seconds)\n\t * @param _maxDuration Maximum market listing duration (seconds)\n\t * @param _minDuration Minimum market listing duration (seconds)\n\t * @param _maxPrice Maximum market listing price (wei)\n\t * @param _minPrice Minimum market listing price (wei)\n\t */\n\tfunction adminSetDetails(uint32 _devFee, uint32 _priceUpdateInterval, uint32 _startDateRoundValue, uint32 _durationRoundValue,\n\t\tuint64 _maxDuration, uint64 _minDuration, uint256 _maxPrice, uint256 _minPrice) public onlyAdmin \n\t{\n\t\tdevFee = _devFee;\n\t\tpriceUpdateInterval = _priceUpdateInterval;\n\t\tstartDateRoundValue = _startDateRoundValue;\n\t\tdurationRoundValue = _durationRoundValue;\n\t\tmaxDuration = _maxDuration;\n\t\tminDuration = _minDuration;\n\t\tmaxPrice = _maxPrice;\n\t\tminPrice = _minPrice;\n\t}\n\n\t/**\n\t * @notice Withdraw all contract funds to `(_to)`\n\t * @dev Only the market admin can access this function\n\t * @param _to Address to withdraw the funds to\n\t */\n\tfunction adminWithdraw(address _to) public onlyAdmin validAddress(_to) \n\t{\n\t\t_to.transfer(address(this).balance);\n\t}\n\n\t/**\n\t * @notice Close and destroy the market\n\t * @dev Only the market admin can access this function\n\t * @param _to Address to withdraw the funds to\n\t */\n\tfunction adminClose(address _to) public onlyAdmin validAddress(_to) \n\t{\n\t\trequire(forSalePixelconIndexes.length == uint256(0), \"Cannot close with active listings\");\n\t\tselfdestruct(_to);\n\t}\n\n\n\t/////////////////////////////////////////////////////////////////////////////////////////////////////////////////////////////////////////////\n\t//////////////////////////////////////////////////////////// Market Core ////////////////////////////////////////////////////////////////////\n\t/////////////////////////////////////////////////////////////////////////////////////////////////////////////////////////////////////////////\n\n\t/**\n\t * @notice Get all market parameters\n\t * @return All market parameters\n\t */\n\tfunction getMarketDetails() public view returns(uint32, uint32, uint32, uint32, uint64, uint64, uint256, uint256) \n\t{\n\t\treturn (devFee, priceUpdateInterval, startDateRoundValue, durationRoundValue, maxDuration, minDuration, maxPrice, minPrice);\n\t}\n\n\t////////////////// Listings //////////////////\n\n\t/**\n\t * @notice Create market listing\n\t * @dev This is an internal function called by the ERC721 receiver function during the safe transfer of a PixelCon\n\t * @param _seller Address of the seller\n\t * @param _tokenId TokenId of the PixelCon\n\t * @param _startPrice Start price of the listing (wei)\n\t * @param _endPrice End price of the listing (wei)\n\t * @param _duration Duration of the listing (seconds)\n\t */\n\tfunction makeListing(address _seller, uint256 _tokenId, uint256 _startPrice, uint256 _endPrice, uint256 _duration) internal \n\t{\n\t\trequire(_startPrice <= maxPrice, \"Start price is higher than the max allowed\");\n\t\trequire(_startPrice >= minPrice, \"Start price is lower than the min allowed\");\n\t\trequire(_endPrice <= maxPrice, \"End price is higher than the max allowed\");\n\t\trequire(_endPrice >= minPrice, \"End price is lower than the min allowed\");\n\n\t\t//convert price units from Wei to Gwei\n\t\t_startPrice = _startPrice / WEI_PER_GWEI;\n\t\t_endPrice = _endPrice / WEI_PER_GWEI;\n\t\trequire(_endPrice > uint256(0), \"End price cannot be zero (gwei)\");\n\t\trequire(_startPrice >= _endPrice, \"Start price is lower than the end price\");\n\t\trequire(_startPrice < uint256(2 ** 64), \"Start price is out of bounds\");\n\t\trequire(_endPrice < uint256(2 ** 64), \"End price is out of bounds\");\n\n\t\t//calculate the start date\n\t\tuint256 startDate = (now / uint256(startDateRoundValue)) * uint256(startDateRoundValue);\n\t\trequire(startDate < uint256(2 ** 64), \"Start date is out of bounds\");\n\n\t\t//round the duration value\n\t\t_duration = (_duration / uint256(durationRoundValue)) * uint256(durationRoundValue);\n\t\trequire(_duration > uint256(0), \"Duration cannot be zero\");\n\t\trequire(_duration <= uint256(maxDuration), \"Duration is higher than the max allowed\");\n\t\trequire(_duration >= uint256(minDuration), \"Duration is lower than the min allowed\");\n\n\t\t//get pixelcon index\n\t\tuint64 pixelconIndex = pixelconsContract.getTokenIndex(_tokenId);\n\n\t\t//create the listing object\n\t\tListing storage listing = marketPixelconListings[pixelconIndex];\n\t\tlisting.startAmount = uint64(_startPrice);\n\t\tlisting.endAmount = uint64(_endPrice);\n\t\tlisting.startDate = uint64(startDate);\n\t\tlisting.duration = uint64(_duration);\n\t\tlisting.seller = _seller;\n\n\t\t//store references\n\t\tuint64[] storage sellerTokens = sellerPixelconIndexes[_seller];\n\t\tuint sellerTokensIndex = sellerTokens.length;\n\t\tuint forSaleIndex = forSalePixelconIndexes.length;\n\t\trequire(sellerTokensIndex < uint256(2 ** 32 - 1), \"Max number of market listings has been exceeded for seller\");\n\t\trequire(forSaleIndex < uint256(2 ** 64 - 1), \"Max number of market listings has been exceeded\");\n\t\tlisting.sellerIndex = uint32(sellerTokensIndex);\n\t\tlisting.forSaleIndex = uint64(forSaleIndex);\n\t\tsellerTokens.length++;\n\t\tsellerTokens[sellerTokensIndex] = pixelconIndex;\n\t\tforSalePixelconIndexes.length++;\n\t\tforSalePixelconIndexes[forSaleIndex] = pixelconIndex;\n\t\temit Create(pixelconIndex, _seller, _startPrice, _endPrice, uint64(_duration));\n\t}\n\n\t/**\n\t * @notice Check if a market listing exists for PixelCon #`(_pixelconIndex)`\n\t * @param _pixelconIndex Index of the PixelCon to check\n\t * @return True if market listing exists\n\t */\n\tfunction exists(uint64 _pixelconIndex) public view returns(bool) \n\t{\n\t\treturn (marketPixelconListings[_pixelconIndex].seller != address(0));\n\t}\n\n\t/**\n\t * @notice Get the current total number of market listings\n\t * @return Number of current market listings\n\t */\n\tfunction totalListings() public view returns(uint256) \n\t{\n\t\treturn forSalePixelconIndexes.length;\n\t}\n\n\t/**\n\t * @notice Get the details of the market listings for PixelCon #`(_pixelconIndex)`\n\t * @dev Throws if market listing does not exist\n\t * @param _pixelconIndex Index of the PixelCon to get details for\n\t * @return All market listing data\n\t */\n\tfunction getListing(uint64 _pixelconIndex) public view returns(address _seller, uint256 _startPrice, uint256 _endPrice, uint256 _currPrice,\n\t\tuint64 _startDate, uint64 _duration, uint64 _timeLeft) \n\t{\n\t\tListing storage listing = marketPixelconListings[_pixelconIndex];\n\t\trequire(listing.seller != address(0), \"Market listing does not exist\");\n\n\t\t//return all data\n\t\t_seller = listing.seller;\n\t\t_startPrice = uint256(listing.startAmount) * WEI_PER_GWEI;\n\t\t_endPrice = uint256(listing.endAmount) * WEI_PER_GWEI;\n\t\t_currPrice = calcCurrentPrice(uint256(listing.startAmount), uint256(listing.endAmount), uint256(listing.startDate), uint256(listing.duration));\n\t\t_startDate = listing.startDate;\n\t\t_duration = listing.duration;\n\t\t_timeLeft = calcTimeLeft(uint256(listing.startDate), uint256(listing.duration));\n\t}\n\n\t/**\n\t * @notice Remove the PixelCon #`(_pixelconIndex)` listing from the market\n\t * @dev Throws if market listing does not exist or if the sender is not the seller/admin\n\t * @param _pixelconIndex Index of the PixelCon to remove listing for\n\t */\n\tfunction removeListing(uint64 _pixelconIndex) public \n\t{\n\t\tListing storage listing = marketPixelconListings[_pixelconIndex];\n\t\trequire(listing.seller != address(0), \"Market listing does not exist\");\n\t\trequire(msg.sender == listing.seller || msg.sender == admin, \"Insufficient permissions\");\n\n\t\t//get data\n\t\tuint256 tokenId = pixelconsContract.tokenByIndex(_pixelconIndex);\n\t\taddress seller = listing.seller;\n\n\t\t//clear the listing from storage\n\t\tclearListingData(seller, _pixelconIndex);\n\n\t\t//transfer pixelcon back to seller\n\t\tpixelconsContract.transferFrom(address(this), seller, tokenId);\n\t\temit Remove(_pixelconIndex, msg.sender);\n\t}\n\n\t/**\n\t * @notice Purchase PixelCon #`(_pixelconIndex)` to address `(_to)`\n\t * @dev Throws if market listing does not exist or if the market is locked\n\t * @param _to Address to send the PixelCon to\n\t * @param _pixelconIndex Index of the PixelCon to purchase\n\t */\n\tfunction purchase(address _to, uint64 _pixelconIndex) public payable validAddress(_to) \n\t{\n\t\tListing storage listing = marketPixelconListings[_pixelconIndex];\n\t\trequire(systemLock != LOCK_REMOVE_ONLY, \"Market is currently locked\");\n\t\trequire(listing.seller != address(0), \"Market listing does not exist\");\n\t\trequire(listing.seller != msg.sender, \"Seller cannot purchase their own listing\");\n\n\t\t//calculate current price based on the time\n\t\tuint256 currPrice = calcCurrentPrice(uint256(listing.startAmount), uint256(listing.endAmount), uint256(listing.startDate), uint256(listing.duration));\n\t\trequire(currPrice != uint256(0), \"Market listing has expired\");\n\t\trequire(msg.value >= currPrice + (currPrice * uint256(devFee)) / FEE_RATIO, \"Insufficient value sent\");\n\n\t\t//get data\n\t\tuint256 tokenId = pixelconsContract.tokenByIndex(_pixelconIndex);\n\t\taddress seller = listing.seller;\n\n\t\t//clear the listing from storage\n\t\tclearListingData(seller, _pixelconIndex);\n\n\t\t//transfer pixelcon to buyer and value to seller\n\t\tpixelconsContract.transferFrom(address(this), _to, tokenId);\n\t\tseller.transfer(currPrice);\n\t\temit Purchase(_pixelconIndex, msg.sender, currPrice);\n\t}\n\n\t////////////////// Web3 Only //////////////////\n\n\t/**\n\t * @notice Get market listing data for the given indexes\n\t * @dev This function is for web3 calls only, as it returns a dynamic array\n\t * @param _indexes PixelCon indexes to get market listing details for\n\t * @return Market listing data for the given indexes\n\t */\n\tfunction getBasicData(uint64[] _indexes) public view returns(uint64[], address[], uint256[], uint64[]) \n\t{\n\t\tuint64[] memory tokenIndexes = new uint64[](_indexes.length);\n\t\taddress[] memory sellers = new address[](_indexes.length);\n\t\tuint256[] memory currPrices = new uint256[](_indexes.length);\n\t\tuint64[] memory timeLeft = new uint64[](_indexes.length);\n\n\t\tfor (uint i = 0; i < _indexes.length; i++) {\n\t\t\tListing storage listing = marketPixelconListings[_indexes[i]];\n\t\t\tif (listing.seller != address(0)) {\n\t\t\t\t//listing exists\n\t\t\t\ttokenIndexes[i] = _indexes[i];\n\t\t\t\tsellers[i] = listing.seller;\n\t\t\t\tcurrPrices[i] = calcCurrentPrice(uint256(listing.startAmount), uint256(listing.endAmount), uint256(listing.startDate), uint256(listing.duration));\n\t\t\t\ttimeLeft[i] = calcTimeLeft(uint256(listing.startDate), uint256(listing.duration));\n\t\t\t} else {\n\t\t\t\t//listing does not exist\n\t\t\t\ttokenIndexes[i] = 0;\n\t\t\t\tsellers[i] = 0;\n\t\t\t\tcurrPrices[i] = 0;\n\t\t\t\ttimeLeft[i] = 0;\n\t\t\t}\n\t\t}\n\t\treturn (tokenIndexes, sellers, currPrices, timeLeft);\n\t}\n\n\t/**\n\t * @notice Get all PixelCon indexes being sold by `(_seller)`\n\t * @dev This function is for web3 calls only, as it returns a dynamic array\n\t * @param _seller Address of seller to get selling PixelCon indexes for\n\t * @return All PixelCon indexes being sold by the given seller\n\t */\n\tfunction getForSeller(address _seller) public view validAddress(_seller) returns(uint64[]) \n\t{\n\t\treturn sellerPixelconIndexes[_seller];\n\t}\n\n\t/**\n\t * @notice Get all PixelCon indexes being sold on the market\n\t * @dev This function is for web3 calls only, as it returns a dynamic array\n\t * @return All PixelCon indexes being sold on the market\n\t */\n\tfunction getAllListings() public view returns(uint64[]) \n\t{\n\t\treturn forSalePixelconIndexes;\n\t}\n\n\t/**\n\t * @notice Get the PixelCon indexes being sold from listing index `(_startIndex)` to `(_endIndex)`\n\t * @dev This function is for web3 calls only, as it returns a dynamic array\n\t * @return The PixelCon indexes being sold in the given range\n\t */\n\tfunction getListingsInRange(uint64 _startIndex, uint64 _endIndex) public view returns(uint64[])\n\t{\n\t\trequire(_startIndex <= totalListings(), \"Start index is out of bounds\");\n\t\trequire(_endIndex <= totalListings(), \"End index is out of bounds\");\n\t\trequire(_startIndex <= _endIndex, \"End index is less than the start index\");\n\n\t\tuint64 length = _endIndex - _startIndex;\n\t\tuint64[] memory indexes = new uint64[](length);\n\t\tfor (uint i = 0; i < length; i++)\t{\n\t\t\tindexes[i] = forSalePixelconIndexes[_startIndex + i];\n\t\t}\n\t\treturn indexes;\n\t}\n\n\n\t/////////////////////////////////////////////////////////////////////////////////////////////////////////////////////////////////////////////\n\t////////////////////////////////////////////////// ERC-721 Receiver Implementation //////////////////////////////////////////////////////////\n\t/////////////////////////////////////////////////////////////////////////////////////////////////////////////////////////////////////////////\n\n\t/**\n\t * @notice Handle ERC721 token transfers\n\t * @dev This function only accepts tokens from the PixelCons contracts and expects parameter data stuffed into the bytes\n\t * @param _operator Address of who is doing the transfer\n\t * @param _from Address of the last owner\n\t * @param _tokenId Id of the token being received\n\t * @param _data Miscellaneous data related to the transfer\n\t * @return The ERC721 safe transfer receive confirmation\n\t */\n\tfunction onERC721Received(address _operator, address _from, uint256 _tokenId, bytes _data) public returns(bytes4) \n\t{\n\t\t//only receive tokens from the PixelCons contract\n\t\trequire(systemLock == LOCK_NONE, \"Market is currently locked\");\n\t\trequire(msg.sender == address(pixelconsContract), \"Market only accepts transfers from the PixelCons contract\");\n\t\trequire(_tokenId != uint256(0), \"Invalid token ID\");\n\t\trequire(_operator != address(0), \"Invalid operator address\");\n\t\trequire(_from != address(0), \"Invalid from address\");\n\n\t\t//extract parameters from byte array\n\t\trequire(_data.length == 32 * 3, \"Incorrectly formatted data\");\n\t\tuint256 startPrice;\n\t\tuint256 endPrice;\n\t\tuint256 duration;\n\t\tassembly {\n\t\t\tstartPrice := mload(add(_data, 0x20))\n\t\t\tendPrice := mload(add(_data, 0x40))\n\t\t\tduration := mload(add(_data, 0x60))\n\t\t}\n\n\t\t//add listing for the received token\n\t\tmakeListing(_from, _tokenId, startPrice, endPrice, duration);\n\n\t\t//all good\n\t\treturn ERC721_RECEIVED;\n\t}\n\n\n\t/////////////////////////////////////////////////////////////////////////////////////////////////////////////////////////////////////////////\n\t////////////////////////////////////////////////////////////// Utils ////////////////////////////////////////////////////////////////////////\n\t/////////////////////////////////////////////////////////////////////////////////////////////////////////////////////////////////////////////\n\n\t/**\n\t * @dev Clears the listing data for the given PixelCon index and seller address\n\t * @param _seller Address of the seller to clear listing data for\n\t * @param _pixelconIndex Index of the PixelCon to clear listing data for\n\t */\n\tfunction clearListingData(address _seller, uint64 _pixelconIndex) internal \n\t{\n\t\tListing storage listing = marketPixelconListings[_pixelconIndex];\n\n\t\t//clear sellerPixelconIndexes reference\n\t\tuint64[] storage sellerTokens = sellerPixelconIndexes[_seller];\n\t\tuint64 replacementSellerTokenIndex = sellerTokens[sellerTokens.length - 1];\n\t\tdelete sellerTokens[sellerTokens.length - 1];\n\t\tsellerTokens.length--;\n\t\tif (listing.sellerIndex < sellerTokens.length) {\n\t\t\t//we just removed the last token index in the array, but if this wasn't the one to remove, then swap it with the one to remove \n\t\t\tsellerTokens[listing.sellerIndex] = replacementSellerTokenIndex;\n\t\t\tmarketPixelconListings[replacementSellerTokenIndex].sellerIndex = listing.sellerIndex;\n\t\t}\n\n\t\t//clear forSalePixelconIndexes reference\n\t\tuint64 replacementForSaleTokenIndex = forSalePixelconIndexes[forSalePixelconIndexes.length - 1];\n\t\tdelete forSalePixelconIndexes[forSalePixelconIndexes.length - 1];\n\t\tforSalePixelconIndexes.length--;\n\t\tif (listing.forSaleIndex < forSalePixelconIndexes.length) {\n\t\t\t//we just removed the last token index in the array, but if this wasn't the one to remove, then swap it with the one to remove \n\t\t\tforSalePixelconIndexes[listing.forSaleIndex] = replacementForSaleTokenIndex;\n\t\t\tmarketPixelconListings[replacementForSaleTokenIndex].forSaleIndex = listing.forSaleIndex;\n\t\t}\n\n\t\t//clear the listing object \n\t\tdelete marketPixelconListings[_pixelconIndex];\n\t}\n\n\t/**\n\t * @dev Calculates the current price of a listing given all its details\n\t * @param _startAmount Market listing start price amount (gwei)\n\t * @param _endAmount Market listing end price amount (gwei)\n\t * @param _startDate Market listing start date (seconds)\n\t * @param _duration Market listing duration (seconds)\n\t * @return The current listing price (wei)\n\t */\n\tfunction calcCurrentPrice(uint256 _startAmount, uint256 _endAmount, uint256 _startDate, uint256 _duration) internal view returns(uint256) \n\t{\n\t\tuint256 timeDelta = now - _startDate;\n\t\tif (timeDelta > _duration) return uint256(0);\n\n\t\ttimeDelta = timeDelta / uint256(priceUpdateInterval);\n\t\tuint256 durationTotal = _duration / uint256(priceUpdateInterval);\n\t\treturn (_startAmount - ((_startAmount - _endAmount) * timeDelta) / durationTotal) * WEI_PER_GWEI;\n\t}\n\n\t/**\n\t * @dev Calculates the total time left for a listing given its details\n\t * @param _startDate Market listing start date (seconds)\n\t * @param _duration Market listing duration (seconds)\n\t * @return Time left before market listing ends (seconds)\n\t */\n\tfunction calcTimeLeft(uint256 _startDate, uint256 _duration) internal view returns(uint64) \n\t{\n\t\tuint256 timeDelta = now - _startDate;\n\t\tif (timeDelta > _duration) return uint64(0);\n\n\t\treturn uint64(_duration - timeDelta);\n\t}\n}\n",
  "sourcePath": "C:\\Users\\Stephen\\Documents\\_Projects\\PixelCons\\contracts\\PixelConMarket.sol",
  "compiler": {
    "name": "solc",
    "version": "0.4.24+commit.e67f0147.Emscripten.clang"
  },
  "schemaVersion": "2.0.1",
  "updatedAt": "2018-12-02T16:38:07.091Z"
}